:040000002EEF05F0EA
:10080000003132334134353642373839432A3023C8
:100810004400000E016E0F0E016414D046D08A9081
:100820000DD08A808A920BD08A808A828A9408D0DE
:100830008A808A828A848A9613D08A808A828A846D
:100840008A860ED00150000AD8B4E9D7040AD8B479
:10085000E8D70C0AD8B4E8D7040AD8B4E9D7EDD75A
:1008600081B806D08A808A828A848A8601501200E2
:10087000012A81BA06D08A808A828A848A860150B7
:100880001200012A81BC06D08A808A828A848A86E4
:1008900001501200012A81BE06D08A808A828A8491
:1008A0008A8601501200012AB6D78A808A828A84F9
:1008B0008A86100E120009EC04F0036E040E036029
:1008C0000BD00350010D010EF324F66E080EF42038
:1008D000F76E0800F5CF02F0040E036003D0080E97
:1008E000036009D0010E0324F66EF76A080EF722A2
:1008F0000800F5CF02F0080E036003D00C0E036071
:1009000009D0010E0324F66EF76A080EF7220800DC
:10091000F5CF02F00C0E036003D0100E036009D077
:10092000010E0324F66EF76A080EF7220800F5CFD1
:1009300002F0100E0318D8A402D0000E026E02506E
:100940001200000E0F015B6F25EC05F09294929659
:100950009298929A95929492949495909594959653
:10096000949C949E5BEC04F0066E06500518D8B477
:1009700003D00650D2EC04F0000E076E040E07649C
:1009800001D00DD00750FCEC04F0070E046E7D0E74
:10099000E82EFED7042EFCD700F0072AEFD706C0BA
:1009A00005F0E0D7016E01A002D08C8201D08C92BC
:1009B00001A202D08B8201D08B9201A402D08B8441
:1009C00001D08B9401A602D08C8001D08C9001A81C
:1009D00002D08C8401D08C9401AA02D08C8601D0E4
:1009E0008C9601AC02D08B8C01D08B9C01AE02D0D6
:1009F0008B8E12008B9E1200016E19D0898489960D
:100A00008998899A1200899489868998899A12000E
:100A1000899489968988899A1200899489968998F7
:100A2000898A1200899489968998899A12000150BE
:100A3000000AD8B4E3D7010AD8B4E5D7030AD8B47A
:100A4000E7D7010AD8B4E9D7EDD79388938A938C76
:100A5000938E93909392939493961200000EF86E57
:060A60000001A1EF04F00B
:020000040020DA
:08000000FFFFFFFFFFFFFFFF00
:020000040030CA
:0E0000000021583CFFD185FF0FC00FE00F40DC
:00000001FF
