:04000000EFEF04F02A
:10080000003132334134353642373839432A3023C8
:100810004400000E016E0F0E016414D046D08A9081
:100820000DD08A808A920BD08A808A828A9408D0DE
:100830008A808A828A848A9613D08A808A828A846D
:100840008A860ED00150000AD8B4E9D7040AD8B479
:10085000E8D70C0AD8B4E8D7040AD8B4E9D7EDD75A
:1008600081B806D08A808A828A848A8601501200E2
:10087000012A81BA06D08A808A828A848A860150B7
:100880001200012A81BC06D08A808A828A848A86E4
:1008900001501200012A81BE06D08A808A828A8491
:1008A0008A8601501200012AB6D78A808A828A84F9
:1008B0008A86100E120009EC04F0036E040E036029
:1008C0000BD00350010D010EF324F66E080EF42038
:1008D000F76E0800F5CF02F0040E036003D0080E97
:1008E000036009D0010E0324F66EF76A080EF722A2
:1008F0000800F5CF02F0080E036003D00C0E036071
:1009000009D0010E0324F66EF76A080EF7220800DC
:10091000F5CF02F00C0E036003D0100E036009D077
:10092000010E0324F66EF76A080EF7220800F5CFD1
:1009300002F0100E0318D8A402D0000E026E02506E
:100940001200016E01A002D08C8201D08C9201A213
:1009500002D08B8201D08B9201A402D08B8401D073
:100960008B9401A602D08C8001D08C9001A802D07B
:100970008C8401D08C9401AA02D08C8601D08C96F4
:1009800001AC02D08B8C01D08B9C01AE02D08B8E3F
:1009900012008B9E1200000E0F015B6FE6EC04F05C
:1009A000959294929494959095949596949C949EF7
:1009B000080EA1EC04F05BEC04F0046E0450D8B413
:1009C000FAD70450D00FA1EC04F0F5D79388938A9E
:1009D000938C938E93909392939493961200000E1F
:0809E000F86E0001CBEF04F0FA
:020000040020DA
:08000000FFFFFFFFFFFFFFFF00
:020000040030CA
:0E0000000021583CFFD185FF0FC00FE00F40DC
:00000001FF
