:0400000063EF00F0BA
:060008005782ABED04F08D
:100018005780D8CF14F0E8CF15F0E0CF16F0FACF1C
:1000280017F0FBCF18F0E9CF19F0EACF1AF0E1CFBB
:100038001BF0E2CF1CF0D9CF1DF0DACF1EF0F3CFC2
:100048001FF0F4CF20F0F6CF21F0F7CF22F0F8CF51
:1000580023F0F5CF24F057C025F058C026F059C03A
:1000680027F05AC028F028C05AF027C059F026C0F7
:1000780058F025C057F024C0F5FF23C0F8FF22C070
:10008800F7FF21C0F6FF20C0F4FF1FC0F3FF1EC01A
:10009800DAFF1DC0D9FF1CC0E2FF1BC0E1FF1AC078
:1000A800EAFF19C0E9FF18C0FBFF17C0FAFF16C026
:1000B800E0FF15C0E8FF14C0D8FF5790100095EF77
:0200C80006F040
:100600000001000A006400E8031027436F6E747253
:100610006F6C2050574D0050574D3D0025336400FE
:0106200000D9
:10062200390E3F6E000E406E02D1250E4718D8B427
:1006320009D035C0D9FF36C0DAFF47C0DFFF354ADF
:10064200362AF5D0000E466E000E456E000E426E42
:1006520037C0F6FF38C0F7FF0800F55086EC06F009
:10066200D8A032D0000E466E000E456E45C029F06D
:1006720046C02AF0000E2C6E0A0E2B6E73EC06F0AA
:1006820029C045F02AC046F0D00E3B6EFF0E3C6EEC
:1006920037C0F6FF38C0F7FF0800F5503D6E3E6ADE
:1006A2003B503D263C503E223D5045263E50462280
:1006B200374A382A37C0F6FF38C0F7FF0800F5502E
:1006C20086EC06F0D8B0D2D737C0F6FF38C0F7FFB5
:1006D200374A382A0800F5CF47F04750000AD8B405
:1006E200B2D0640AD8B403D00D0AD8A4A0D03FC0B7
:1006F200D9FF40C0DAFFDECF43F0DDCF44F0020E77
:100702003F26000E402244AE06D0030E4212436C36
:10071200441ED8B0442A010E476E050E4718D8B4BD
:1007220012D04750020D010EF324F66E060EF4208D
:10073200F76E0900F550435C0900F5504458D8A003
:1007420002D0472AEAD745504610D8B409D042C051
:100752003BF0030E3B16D8B403D04506D8A046069C
:10076200800E47BE7F0E3B6E4550475C4650800A66
:100772003B58D8B007D04750455E000E47BEFF0E2B
:10078200465A04D0000E466E000E456E4550461085
:10079200D8B40FD035C0D9FF36C0DAFF200EDF6ED5
:1007A200354A362A4506D8A0460645504610D8A4F2
:1007B200F1D742C03BF0030E3B16D8B408D035C087
:1007C200D9FF36C0DAFF2D0EDF6E354A362A47C012
:1007D20041F029D04150020D010EF324F66E060EAF
:1007E200F420F76E0900F5CF2BF00A00F5CF2CF0BC
:1007F20043C029F044C02AF06BEC05F029C030F068
:100802002AC031F0000E336E0A0E326E05EC06F08D
:100812003050300F476E35C0D9FF36C0DAFF47C0BF
:10082200DFFF354A362A41064128D8A4D3D737C03C
:10083200F6FF38C0F7FF374A382A0800F5CF47F0ED
:100842004750D8A4F2D635C0D9FF36C0DAFF000E21
:10085200DF6E1200000E486E000E4C6E9494949659
:100862009482F28AD59AD596D59ED58CD594D58286
:10087200D580F184D08EF28EF29C0EEC05F08C9C29
:10088200010EBDEC05F0010E2C6E010E43EC06F0DC
:100892000B0E2D6E060E2E6E94EC05F0020E2C6ED3
:1008A200010E43EC06F0170E2D6E060E2E6E94EC22
:1008B20005F04F0E356E000E366E1C0E376E060EAC
:1008C200386E48C039F03A6A11EC03F04F0E2D6EC3
:1008D200000E2E6E94EC05F08B948B96D58E82B220
:1008E20036D04C28D8A417D0000E4C6E000E4A6E9B
:1008F200000E496E4A5010E1080E495CD8B00CD087
:100902004F0E4924D96E000E4A20DA6E000EDF6EB9
:10091200494A4A2AEFD74C2A4CC048F04F0E356E4E
:10092200000E366E1C0E376E060E386E48C039F059
:100932003A6A11EC03F0020E2C6E060E43EC06F03E
:100942004F0E2D6E000E2E6E94EC05F0C8D7080ED9
:100952008B1AC5D70600FACF02F0FBCF03F0E9CF1E
:1009620004F0EACF05F0E1CF06F0E2CF07F0D9CFED
:1009720008F0DACF09F0F3CF0AF0F4CF0BF0F6CF9C
:100982000CF0F7CF0DF0F8CF0EF0F5CF0FF057C007
:1009920010F058C011F059C012F05AC013F0F2A46E
:1009A20016D04E50D8A408D08B844C500008016E4B
:1009B20001044D6E010E04D08B944CC04DF0000E1C
:1009C2004E6E4DC0D6FFD76AF294080E8B1A13C032
:1009D2005AF012C059F011C058F010C057F00FC0B1
:1009E200F5FF0EC0F8FF0DC0F7FF0CC0F6FF0BC0FD
:1009F200F4FF0AC0F3FF09C0DAFF08C0D9FF07C03D
:100A0200E2FF06C0E1FF05C0EAFF04C0E9FF03C040
:100A1200FBFF02C0FAFF57921100939E939C939A98
:100A22009398959A959C959E300EA2EC06F0140E22
:100A32002C6E7A0EE82EFED72C2EFCD7300EA2ECAE
:100A420006F0C80E00D0E82EFDD7300EA2EC06F05C
:100A5200140E2C6E7A0EE82EFED72C2EFCD7200E0A
:100A6200A2EC06F0070E2C6E7D0EE82EFED72C2E81
:100A7200FCD700F0280EBDEC05F0070E2C6E7D0EA3
:100A8200E82EFED72C2EFCD700F00E0EBDEC05F0A2
:100A9200070E2C6E7D0EE82EFED72C2EFCD700F012
:100AA200010EBDEC05F0070E2C6E7D0EE82EFED772
:100AB2002C2EFCD700F0060EBDEC05F0070E2C6EB6
:100AC2007D0EE82EFED72C2EFCD700F0800EBDEC5A
:100AD20005F01200000E2E6E000E2D6E2B502C1003
:100AE200D8B41CD0010E2F6E04D0D8902B362C36E1
:100AF2002F2A2CAEFAD7D8902D362E362B50295CC1
:100B02002C502A58D8A005D02B50295E2C502A5A96
:100B12002D80D8902C322B322F2EEDD72DC029F0DC
:100B22002EC02AF0120014D02DC0F6FF2EC0F7FFFF
:100B3200F86A050EF76403D00800F55005D0F6CF29
:100B4200E9FFF7CFEAFFEF5026EC06F02D4A2E2AF6
:100B52002DC0F6FF2EC0F7FFF86A050EF76403D02A
:100B62000800F55005D0F6CFE9FFF7CFEAFFEF50C6
:100B72000009D8B41200D8D72B6E000E4B6E8C9A97
:100B82000F0E4B162B50F00B4B124B505DEC06F038
:100B9200AFEC06F0040E2A6EE40EE82EFED72A2EE3
:100BA200FCD700D00F0E4B162BC02AF00F0E2A16C0
:100BB2002A38F00B4B124B505DEC06F0AFEC06F00E
:100BC20012002B6E8C8A0F0E4B162B50F00B4B1211
:100BD2004B505DEC06F0AFEC06F0040E2A6EE40E0C
:100BE200E82EFED72A2EFCD700D00F0E4B162BC0B4
:100BF2002AF00F0E2A162A38F00B4B124B505DECDE
:100C020006F0AFEC06F0120032503310D8B418D010
:100C1200010E346E04D0D89032363336342A33AED5
:100C2200FAD73250305C33503158D8A004D0325009
:100C3200305E3350315AD89033323232342EF1D7BB
:100C420030C030F031C031F012002C6E10D0010EE5
:100C5200BDEC05F01200020EBDEC05F01200100E04
:100C6200BDEC05F012002C50E2EC05F012002C5005
:100C7200080AD8B4F4D7020AD8B4EDD7060AD8B411
:100C8200E6D7F1D72E6E000E2F6E05D0C00E01D022
:100C9200800E2F6E08D02C50010AD8B4F9D7030A5F
:100CA200D8B4F4D7F5D72F502E242D6E2D042F6EE5
:100CB2002F50BDEC05F01200296E29A802D08A88B7
:100CC20001D08A9829AA02D08A8A01D08A9A29ACAC
:100CD20002D08A8C01D08A9C29AE02D08A8E120060
:100CE2008A9E120029502B02F3CF2DF0F4CF2EF062
:100CF20029502C02F3502E262A502B02F3502E2676
:100D02002DC029F02EC02AF012002B6E000E2A6E82
:100D12003A0E2B6005D02F0E2B6402D0010E2A6EE4
:100D22002AC029F02930120000EE4BF00C0EEE6AB8
:100D3200E806FDE157905792000EF86E00012BEF86
:100D420004F02A6E8C9A0F0E4B162A50F00B4B129F
:100D52004B505DEC06F0AFEC06F012008C8E030EE9
:100D6200296E980EE82EFED7292EFCD78C9E1200F3
:020000040020DA
:08000000FFFFFFFFFFFFFFFF00
:020000040030CA
:0E000000FF01181EFF8081FF0FC00FE00F40B0
:00000001FF
