:04000000F9EF3DF0E7
:107A84008382000E466E010E456EBAEC3DF0839281
:107A940012004B6E83900F0E83164B50F00B831223
:107AA40042EC3DF0120009D04DC0D9FF4EC0DAFFC0
:107AB400DF508FEC3DF04D4A4E2A4DC0D9FF4EC0E9
:107AC400DAFFDF50D8B41200EFD753C045F054C0EA
:107AD40046F0F0EC3EF0534A542A0A0E5318541060
:107AE400D8A404D0000E546E000E536E780E12000B
:107AF4004C6E83900F0E83164C50F00B831242ECA5
:107B04003DF00F0E83164CC04BF00F0E4B164B3846
:107B1400F00B831242EC3DF012004C6E83800F0E8A
:107B240083164C50F00B831242EC3DF00F0E83167B
:107B34004CC04BF00F0E4B164B38F00B831242EC3B
:107B44003DF01200300E4BEC3DF0200E4BEC3DF0BE
:107B5400280E7AEC3DF00E0E7AEC3DF0010E7AEC34
:107B64003DF0060E7AEC3DF0800E7AEC3DF012000A
:107B7400000E486E000E476E11D0000E4A6E000EC5
:107B8400496E4ABE06D04A5007E1790E495CD8B026
:107B940003D0494A4A2AF5D7474A482A4750455C00
:107BA40048504658D8A01200E8D7C000D0001F00A3
:107BB400B00039002C001100DF004F534341522024
:107BC4004544554152444F004C554E41204D454E7D
:107BD400444F5A41004E4F524D4120495341424572
:107BE4004C004A55414E204341524C4F5300A20E83
:107BF400F66E7C0EF76E000EF86E00EE60F010EE7E
:107C04008EF00900F5CFEEFFE550E150FAE1AE0E3B
:107C1400F66E7B0EF76E000EF86E00EE01F010EEBD
:107C240044F00900F5CFEEFFE550E150FAE1566A61
:107C3400556A546A536A000198EF3EF0010E7AECDB
:107C44003DF0D8905534D96E5634DA6E090ED926E3
:107C5400000EDA22DECF4DF0DDCF4EF055EC3DF0D4
:107C6400C00E7AEC3DF0D8905534D96E5634DA6EA5
:107C7400010ED926000EDA22DECF4DF0DDCF4EF014
:107C840055EC3DF0554A562A040E55185610D8A402
:107C940004D0000E566E000E556E780E12000101CF
:107CA40001010101000000010100000000000101C8
:107CB40000010100010001010101000001000001B7
:107CC40001000001010001000101000101000100A7
:107CD4000101010101000101010000000000010196
:107CE40001010101010001010100000101004C41F9
:107CF4002050524F4752414D4143494F4E00524F3D
:107D04004452494755455A20504552455A00484522
:107D1400524E414E44455A204449415A00494E541A
:107D2400524F44554343494F4E204100780E526E02
:107D3400000E546E000E536E000E956E000E936E80
:107D4400948C948E94909492A4EC3DF0020E516E17
:107D5400040E506EBA0EE82EFED7502EFCD7512ECC
:107D6400FAD700D0010E7AEC3DF00FC04DF010C0F0
:107D74004EF055EC3DF0C00E7AEC3DF007C04DF0EE
:107D840008C04EF055EC3DF0000E466E080E456EF0
:107D9400F0EC3EF01A0E506EF80EE82EFED7502E80
:107DA400FCD700D082AC05D08280829220EC3EF0D9
:107DB40006D082AE05D08290828267EC3DF0526E8E
:107DC40082708272030E516E8A0E506E560EE82E29
:107DD400FED7502EFCD7512EFAD7DCD7000E4F6EAB
:107DE400000E4E6E4FBE08D04F5005E1080E4E5C9B
:107DF400D8B0120001D0120045C047F046C048F088
:107E0400D89047364836D89047364836D8904736C3
:107E14004836600E496E000E4A6E47504926485057
:107E24004A224E504924D96E4F504A20DA6EDF5010
:107E34004B6E4B504C6E4D6A45C047F046C048F0FF
:107E4400D89047364836D89047364836D890473683
:107E54004836600E4724D96E000E4820DA6EDF5093
:107E6400496E8A504918FE0B49188A6E45C047F07E
:107E740046C048F0D89047364836D89047364836FA
:107E8400D89047364836010E4726000E4822600E29
:107E94004724D96E000E4820DA6EDF50496E4946F9
:107EA4008A504918FD0B49188A6E45C047F046C0F0
:107EB40048F0D89047364836D89047364836D89058
:107EC40047364836020E4726000E4822600E4724E5
:107ED400D96E000E4820DA6EDF50496E4946494695
:107EE4008A504918FB0B49188A6E45C047F046C0B2
:107EF40048F0D89047364836D89047364836D89018
:107F040047364836030E4726000E4822600E4724A3
:107F1400D96E000E4820DA6EDF50496E4946494654
:107F240049468A504918F70B49188A6E45C047F0EC
:107F340046C048F0D89047364836D8904736483639
:107F4400D89047364836040E4726000E4822600E65
:107F54004724D96E000E4820DA6EDF50496E493A44
:107F64008A504918EF0B49188A6E45C047F046C03D
:107F740048F0D89047364836D89047364836D89097
:107F840047364836050E4726000E4822600E472421
:107F9400D96E000E4820DA6EDF50496E493A4946E0
:107FA4008A504918DF0B49188A6E45C047F046C00D
:107FB40048F0D89047364836D89047364836D89057
:107FC40047364836060E4726000E4822600E4724E0
:107FD400D96E000E4820DA6EDF50496E493A4946A0
:107FE40049468A504918BF0B49188A6E4E4A4F2A8F
:0C7FF4004FBE02D74F5001E1F9D6120039
:020000040020DA
:08000000FFFFFFFFFFFFFFFF00
:020000040030CA
:0E00000000051F1FFF8385FF0FC00FE00F409C
:00000001FF
