:04000000BDEF04F05C
:10060000004D756573747261206361726163746516
:100610007265730A0D0050756572746F20536572B0
:1006200069616C006C657472613A2025630A0D0083
:10063000202020202000686F6C610000939E939C16
:10064000939A9398959A959C959E8C9C300EB0ECBD
:1006500004F04E0E046EEB0EE82EFED7042EFCD7EF
:1006600000F0300EB0EC04F0100E046E940EE82E84
:10067000FED7042EFCD700D0300EB0EC04F04E0EA6
:10068000046EEB0EE82EFED7042EFCD700F0200EF1
:10069000B0EC04F0200E046E2A0EE82EFED7042ED5
:1006A000FCD7280E06EC04F0200E046E2A0EE82E6D
:1006B000FED7042EFCD70E0E06EC04F0200E046EBE
:1006C0002A0EE82EFED7042EFCD7010E06EC04F00D
:1006D000200E046E2A0EE82EFED7042EFCD7060E3E
:1006E00006EC04F0200E046E2A0EE82EFED7042E2F
:1006F000FCD7800E06EC04F012009498C8EC04F0CD
:100700001EEC03F0160E056E060E066E9BEC04F052
:10071000020E046E010E6BEC04F0360E056E060E32
:10072000066E9BEC04F0010E026E060E036ECAEC20
:1007300003F0410E0C6E5A0E0C6401D0FAD7240E51
:10074000026E060E036E0CC004F0056ACAEC03F0DC
:100750008B78020E046E010E6BEC04F0300E056E09
:10076000060E066E9BEC04F0020E046E010E6BEC9E
:1007700004F00C504EEC04F0290E0B6E960E0A6E2F
:100780007F0EE82EFED70A2EFCD70B2EFAD700F0EC
:100790000C2AD1D7040E076E000E086E2AD0250E43
:1007A0000918D8B404D00950DEEC04F022D0000EB1
:1007B000066E0ED007C0D9FF08C0DAFFDF50096E01
:1007C000020E0726000E08220950DEEC04F011D0BC
:1007D00002C0F6FF03C0F7FF024A032A0800F5CF64
:1007E00009F00950000AD8B41200630AD8B4E2D75D
:1007F000EBD702C0F6FF03C0F7FF024A032A080046
:10080000F5CF09F00950D8B41200C9D7036E000E15
:10081000156E8C9A0F0E15160350F00B151215500D
:1008200085EC04F0D3EC04F0150E026EC60EE82E33
:10083000FED7022EFCD700D00F0E151603C002F013
:100840000F0E02160238F00B1512155085EC04F04D
:10085000D3EC04F01200036E8C8A0F0E15160350B1
:10086000F00B1512155085EC04F0D3EC04F0150EC6
:10087000026EC60EE82EFED7022EFCD700D00F0E59
:10088000151603C002F00F0E02160238F00B1512F7
:10089000155085EC04F0D3EC04F01200046E10D077
:1008A000010E06EC04F01200030E06EC04F0120038
:1008B000100E06EC04F0120004502BEC04F01200B1
:1008C0000450080AD8B4F4D7020AD8B4EDD7060AFF
:1008D000D8B4E6D7F1D7066E000E076E05D0C00E6D
:1008E00001D0800E076E08D00450010AD8B4F9D7A1
:1008F000030AD8B4F4D7F5D707500624056E0504CB
:10090000076E075006EC04F01200016E01A802D039
:100910008A8801D08A9801AA02D08A8A01D08A9A4C
:1009200001AC02D08A8C01D08A9C01AE02D08A8EA2
:1009300012008A9E12000AD005C0F6FF06C0F7FF1B
:100940000800F5504EEC04F0054A062A05C0F6FFF3
:1009500006C0F7FF0800F5500009D8B41200ECD724
:10096000026E8C9A0F0E15160250F00B15121550D0
:1009700085EC04F0D3EC04F0120000EE0DF0090E4B
:10098000EE6AE806FDE1000EF86E00017DEF03F06F
:10099000B896AC98AC84670EAF6EAC8AAB8EAB8861
:1009A000948E949C12008C8E100E016E940EE82E84
:1009B000FED7012EFCD700D08C9E1200016E9EA89F
:0809C000FED701C0ADFF1200DB
:020000040020DA
:08000000FFFFFFFFFFFFFFFF00
:020000040030CA
:0E000000FF02181EFF8081FF0FC00FE00F40AF
:00000001FF
