:020000040000FA
:10000000000000308A000D2805288C00030E8D00AA
:100010000D0E83008C0E0C0E090014204830572062
:100020006F305720630013288316051005118510C3
:10003000003086008312851005110510A420303091
:100040002E20A82030302E20912030302E2020303D
:100050002E2054205220502042200800F039A000C9
:1000600006080F39A00483160608A2000F30860583
:1000700083122008860005150511831622088600C4
:10008000831208000630552880305528C030552886
:1000900080385528C0385528083055280E30552846
:1000A0000C305528013055282830051059280514E2
:1000B0006120A1002E20210E2E20051CAA209620B2
:1000C0000800A0002008080010306B2801306B28C1
:1000D00002306B280330A30020305720A30B6C287C
:1000E0000800A400F039031D7928203057207B2810
:1000F000A400240E7C2024080F39A300093C031C13
:1001000084282308303E86282308373E57280000DD
:100110000000000000000000000008000000A43003
:100120009A28000040309A281F309A2800000E308C
:100130009A280530A500A50B9B280800C830AD28DB
:100140006430AD283230AD281430AD280A30AD28E7
:100150000530AD280230AD280130A600F930A500E9
:100160000000A50BB028A60BAE280800C830C12897
:100170006430C1283230C1281430C1280A30C12867
:100180000530A7006430A600F930A5000000A50BDB
:0C019000C628A60BC428A70BC228080034
:02400E00F13F80
:00000001FF
