:0600000000F0A7EF1FF065
:103F4C00FFFF0001AAEF1FF0FFFF000E8C6E000EAA
:103F5C008A6E7F0E956EFE0E936EF19E8A908C9EED
:103F6C00FFFF83B483B613D0620E016E760EFFFF93
:103F7C00E82EFDD7012EFBD700D083B483B6F0D743
:103F8C008C8E8A90FFFF83B483B6EAD7FBD7FFFFF2
:103F9C0083A483A613D0620E016E760EFFFFE82E6B
:103FAC00FDD7012EFBD700D083A483A6D9D78C8E46
:103FBC008A80FFFF83A483A6D3D7FBD7FFFF83A4FC
:103FCC0083B613D0620E016E760EFFFFE82EFDD77E
:103FDC00012EFBD700D083A483B6C2D78C9E8A90C7
:103FEC00FFFF83A483B6BCD7FBD7FFFF8C9E8A80D0
:043FFC00B7D7FFFF35
:020000040020DA
:08000000FFFFFFFFFFFFFFFF00
:020000040030CA
:0E000000FF220C0EFF0080FF0FC00FE00F402C
:00000001FF
