:04000000C6EF3FF018
:107F8C000001C9EF3FF07F0E956EFE0E936E848E4E
:107F9C00F19E010E8A6E000E8C6E0D0E026EAF0EEF
:107FAC00016EB60EE82EFED7012EFCD7022EFAD7A4
:107FBC0000D0000E8A6E800E8C6E0D0E026EAF0E0F
:107FCC00016EB60EE82EFED7012EFCD7022EFAD784
:107FDC0000D0010E8A6E800E8C6E0D0E026EAF0EEE
:107FEC00016EB60EE82EFED7012EFCD7022EFAD764
:047FFC0000D0CFD70B
:020000040020DA
:08000000FFFFFFFFFFFFFFFF00
:020000040030CA
:0E000000010C181EFF8081FF0FC00FE00F40A3
:00000001FF
