:0400000063EF00F0BA
:06000800548286ED04F0B5
:100018005480D8CF13F0E8CF14F0E0CF15F0FACF22
:1000280016F0FBCF17F0E9CF18F0EACF19F0E1CFBF
:100038001AF0E2CF1BF0D9CF1CF0DACF1DF0F3CFC6
:100048001EF0F4CF1FF0F6CF20F0F7CF21F0F8CF55
:1000580022F0F5CF23F054C024F055C025F056C047
:1000680026F057C027F027C057F026C056F025C005
:1000780055F024C054F023C0F5FF22C0F8FF21C07A
:10008800F7FF20C0F6FF1FC0F4FF1EC0F3FF1DC01E
:10009800DAFF1CC0D9FF1BC0E2FF1AC0E1FF19C07C
:1000A800EAFF18C0E9FF17C0FBFF16C0FAFF15C02A
:1000B800E0FF14C0E8FF13C0D8FF549010003CEFD5
:0200C80006F040
:100600000001000A006400E80310272048616269C5
:100610006C69746120696E7427730025346400006E
:10062000380E3E6E000E3F6E02D1250E4618D8B42D
:1006300009D034C0D9FF35C0DAFF46C0DFFF344AE5
:10064000352AF5D0000E456E000E446E000E416E48
:1006500036C0F6FF37C0F7FF0800F5502DEC06F066
:10066000D8A032D0000E456E000E446E44C028F073
:1006700045C029F0000E2B6E0A0E2A6E1AEC06F009
:1006800028C044F029C045F0D00E3A6EFF0E3B6EF4
:1006900036C0F6FF37C0F7FF0800F5503C6E3D6AE4
:1006A0003A503C263B503D223C5044263D5045228A
:1006B000364A372A36C0F6FF37C0F7FF0800F55034
:1006C0002DEC06F0D8B0D2D736C0F6FF37C0F7FF12
:1006D000364A372A0800F5CF46F04650000AD8B40B
:1006E000B2D0640AD8B403D00D0AD8A4A0D03EC0BA
:1006F000D9FF3FC0DAFFDECF42F0DDCF43F0020E7C
:100700003E26000E3F2243AE06D0030E4112426C3D
:10071000431ED8B0432A010E466E050E4618D8B4C3
:1007200012D04650020D010EF324F66E060EF42090
:10073000F76E0900F550425C0900F5504358D8A007
:1007400002D0462AEAD744504510D8B409D041C057
:100750003AF0030E3A16D8B403D04406D8A04506A2
:10076000800E46BE7F0E3A6E4450465C4550800A6D
:100770003A58D8B007D04650445E000E46BEFF0E31
:10078000455A04D0000E456E000E446E445045108C
:10079000D8B40FD034C0D9FF35C0DAFF200EDF6ED9
:1007A000344A352A4406D8A0450644504510D8A4FA
:1007B000F1D741C03AF0030E3A16D8B408D034C08D
:1007C000D9FF35C0DAFF2D0EDF6E344A352A46C018
:1007D00040F029D04050020D010EF324F66E060EB3
:1007E000F420F76E0900F5CF2AF00A00F5CF2BF0C0
:1007F00042C028F043C029F012EC05F028C02FF0C9
:1008000029C030F0000E326E0A0E316EACEC05F0ED
:100810002F50300F466E34C0D9FF35C0DAFF46C0C6
:10082000DFFF344A352A40064028D8A4D3D736C043
:10083000F6FF37C0F7FF364A372A0800F5CF46F0F3
:100840004650D8A4F2D634C0D9FF35C0DAFF000E26
:10085000DF6E1200959E959C959A95989594959625
:10086000300E49EC06F0140E2B6E7A0EE82EFED7F1
:100870002B2EFCD7300E49EC06F0C80E00D0E82E27
:10088000FDD7300E49EC06F0140E2B6E7A0EE82ED2
:10089000FED72B2EFCD7200E49EC06F0070E2B6E50
:1008A0007D0EE82EFED72B2EFCD700F0280E64EC30
:1008B00005F0070E2B6E7D0EE82EFED72B2EFCD7F3
:1008C00000F00E0E64EC05F0070E2B6E7D0EE82E88
:1008D000FED72B2EFCD700F0010E64EC05F0070EBE
:1008E0002B6E7D0EE82EFED72B2EFCD700F0060EC9
:1008F00064EC05F0070E2B6E7D0EE82EFED72B2E36
:10090000FCD700F0800E64EC05F012000600FACF70
:1009100001F0FBCF02F0E9CF03F0EACF04F0E1CF22
:1009200005F0E2CF06F0D9CF07F0DACF08F0F3CF29
:1009300009F0F4CF0AF0F6CF0BF0F7CF0CF0F8CFB8
:100940000DF0F5CF0EF054C00FF055C010F056C0AA
:1009500011F057C012F0F2A203D0494A4A2AF2928B
:1009600012C057F011C056F010C055F00FC054F02F
:100970000EC0F5FF0DC0F8FF0CC0F7FF0BC0F6FF6F
:100980000AC0F4FF09C0F3FF08C0DAFF07C0D9FFAF
:1009900006C0E2FF05C0E1FF04C0EAFF03C0E9FFB3
:1009A00002C0FBFF01C0FAFF54921100000E4A6E14
:1009B000000E496E030E936E2AEC04F00B0E2C6EA3
:1009C000060E2D6E3BEC05F0F288F18CD08EF28E87
:1009D000F28C8A888A848A96050E486EF90E476ED4
:1009E000B50EE82EFED7472EFCD7482EFAD700F0DA
:1009F0004C0E346E000E356E1B0E366E060E376EC4
:100A000049C038F04AC039F010EC03F0020E2B6EEA
:100A1000010EEAEC05F04C0E2C6E000E2D6E3BEC38
:100A200005F0DAD7000E2D6E000E2C6E2A502B101A
:100A3000D8B41CD0010E2E6E04D0D8902A362B3696
:100A40002E2A2BAEFAD7D8902C362D362A50285C79
:100A50002B502958D8A005D02A50285E2B50295A4F
:100A60002C80D8902B322A322E2EEDD72CC028F095
:100A70002DC029F0120014D02CC0F6FF2DC0F7FFB6
:100A8000F86A050EF76403D00800F55005D0F6CFDC
:100A9000E9FFF7CFEAFFEF50CDEC05F02C4A2D2A05
:100AA0002CC0F6FF2DC0F7FFF86A050EF76403D0DF
:100AB0000800F55005D0F6CFE9FFF7CFEAFFEF5079
:100AC0000009D8B41200D8D72A6E000E4B6E8C9451
:100AD0000F0E4B162A50F00B4B124B5004EC06F045
:100AE00056EC06F0040E296EE40EE82EFED7292EF1
:100AF000FCD700D00F0E4B162AC029F00F0E291676
:100B00002938F00B4B124B5004EC06F056EC06F073
:100B100012002A6E8C840F0E4B162A50F00B4B12CB
:100B20004B5004EC06F056EC06F0040E296EE40E71
:100B3000E82EFED7292EFCD700D00F0E4B162AC068
:100B400029F00F0E29162938F00B4B124B5004ECEC
:100B500006F056EC06F0120031503210D8B418D01E
:100B6000010E336E04D0D89031363236332A32AE8D
:100B7000FAD731502F5C32503058D8A004D03150C1
:100B80002F5E3250305AD89032323132332EF1D774
:100B90002FC02FF030C030F012002B6E10D0010E9D
:100BA00064EC05F01200020E64EC05F01200100E69
:100BB00064EC05F012002B5089EC05F012002B506C
:100BC000080AD8B4F4D7020AD8B4EDD7060AD8B4C4
:100BD000E6D7F1D72D6E000E2E6E05D0C00E01D0D7
:100BE000800E2E6E08D02B50010AD8B4F9D7030A14
:100BF000D8B4F4D7F5D72E502D242C6E2C042E6E9D
:100C00002E5064EC05F01200286E28A802D08C88C3
:100C100001D08C9828AA02D08C8A01D08C9A28AC5A
:100C200002D08C8C01D08C9C28AE02D08C8E12000D
:100C30008C9E120028502A02F3CF2CF0F4CF2DF016
:100C400028502B02F3502D2629502A02F3502D262E
:100C50002CC028F02DC029F012002A6E000E296E3B
:100C60003A0E2A6005D02F0E2A6402D0010E296E9A
:100C700029C028F02830120000EE49F00B0EEE6A71
:100C8000E806FDE154905492000EF86E0001D6EF94
:100C900004F0296E8C940F0E4B162950F00B4B125A
:100CA0004B5004EC06F056EC06F012008C86030E56
:100CB000286E980EE82EFED7282EFCD78C961200B0
:020000040020DA
:08000000FFFFFFFFFFFFFFFF00
:020000040030CA
:0E000000FF01181EFF8081FF0FC00FE00F40B0
:00000001FF
