:04000000BBEF3FF023
:107F76000001BEEF3FF0000E956E8C96848EF19E4A
:107F8600000E8A6E000E8C6E8A808C9E0D0E026E1E
:107F9600AF0E016EB60EE82EFED7012EFCD7022ECE
:107FA600FAD700D08A908C8E0D0E026EAF0E016E3F
:107FB600B60EE82EFED7012EFCD7022EFAD700D039
:107FC6008A808C8E0D0E026EAF0E016EB60EE82EF6
:107FD600FED7012EFCD7022EFAD700D08A908C9EAF
:107FE6000D0E026EAF0E016EB60EE82EFED7012EF6
:0A7FF600FCD7022EFAD700D0C7D73F
:020000040020DA
:08000000FFFFFFFFFFFFFFFF00
:020000040030CA
:0E000000010C181EFF8081FF0FC00FE00F40A3
:00000001FF
