:040000001AEF3FF0C4
:107E2C00010E4BEC3FF012000D6A0C6A0001D0EF12
:107E3C003FF0076E07507F0B076E07508009076EE7
:107E4C0007504BEC3FF01200076E0750070B076E04
:107E5C0007500809076E07504BEC3FF01200076EF5
:107E6C000750030B076E07500409076E07504BECC5
:107E7C003FF01200076E07501F0B076E07502009CA
:107E8C00076E07504BEC3FF01200066EA9EC3FF06A
:107E9C00E806D8B4FBD7000E936E8292829406C08B
:107EAC0081FF8280000E056E000E046E02D0044A23
:107EBC00052A05BEFCD7055004E1140E045CD8A0BD
:107ECC00F6D782901200066EA9EC3FF0E806D8B403
:107EDC00FBD7000E936E8292828406C081FF828053
:107EEC00000E056E000E046E02D0044A052A05BE73
:107EFC00FCD7055004E1140E045CD8A0F6D7829090
:107F0C001200000E936E000E816EF00E946E829035
:107F1C0082928294000E096E000E086E02D0084AFE
:107F2C00092A280E085C230E0958D8A0F8D716EC9D
:107F3C003FF0020E35EC3FF0180E40EC3FF0040E13
:107F4C002AEC3FF012009368000E816E82828294BC
:107F5C008280000E026E000E016E02D0014A022ACF
:107F6C0002BEFCD7025004E1140E015CD8A0F6D777
:107F7C0081CF03F082900350800B036E800E0318A8
:107F8C00D8A404D0000E936E010E1200000E936E56
:107F9C00000E1200000E936E000E816E87EC3FF007
:107FAC00000E0B6E05D00B50410F69EC3FF00B2A05
:107FBC000F0E0B64F8D7400E1FEC3FF0000E0B6E4B
:107FCC0005D00B50610F69EC3FF00B2A0F0E0B64C0
:107FDC00F8D78182820E0A6EDE0EE82EFED70A2EAC
:107FEC00FCD78192820E0A6EDE0EE82EFED70A2E88
:047FFC00FCD7EFD7E8
:020000040020DA
:08000000FFFFFFFFFFFFFFFF00
:020000040030CA
:0E000000000C1F1EFF8385FF0FC00FE00F4096
:00000001FF
