:0400000063EF00F0BA
:06000800328265ED00F0FC
:100018003280D8CF14F0E8CF15F0E0CF16F0FACF41
:1000280017F0FBCF18F0E9CF19F0EACF1AF0E1CFBB
:100038001BF0E2CF1CF0D9CF1DF0DACF1EF0F3CFC2
:100048001FF0F4CF20F0F6CF21F0F7CF22F0F8CF51
:1000580023F0F5CF24F032C025F033C026F034C0A9
:1000680027F035C028F028C035F027C034F026C066
:1000780033F025C032F024C0F5FF23C0F8FF22C0BA
:10008800F7FF21C0F6FF20C0F4FF1FC0F3FF1EC01A
:10009800DAFF1DC0D9FF1CC0E2FF1BC0E1FF1AC078
:1000A800EAFF19C0E9FF18C0FBFF17C0FAFF16C026
:1000B800E0FF15C0E8FF14C0D8FF329010000FEF22
:1000C80001F00600FACF02F0FBCF03F0E9CF04F00D
:1000D800EACF05F0E1CF06F0E2CF07F0D9CF08F07C
:1000E800DACF09F0F3CF0AF0F4CF0BF0F6CF0CF02B
:1000F800F7CF0DF0F8CF0EF0F5CF0FF032C010F0BB
:1001080033C011F034C012F035C013F0F2A416D089
:100118003150D8A409D08B842F500008016E0104F7
:10012800306E010E316E06D08B942FC030F0000E69
:10013800316E2E2A30C0D6FFD76AF29413C035F03C
:1001480012C034F011C033F010C032F00FC0F5FF08
:100158000EC0F8FF0DC0F7FF0CC0F6FF0BC0F4FF90
:100168000AC0F3FF09C0DAFF08C0D9FF07C0E2FFE1
:1001780006C0E1FF05C0EAFF04C0E9FF03C0FBFFBA
:1001880002C0FAFF32921100949494969482F28AF3
:10019800D59AD596D59ED58CD594D592D580F1840F
:1001A800D08EF28EF29C8B948B96000E2B6E000EE6
:1001B8002A6E2BBE03D02B5012E10DD0820E296E71
:1001C800DE0EE82EFED7292EFCD72A4A2B2A2BBE74
:1001D800F5D72B5004E10A0E2A5CD8A0EFD7D58EAC
:1001E800000E2D6E2C680AD02CC02FF0000E2E6E3B
:1001F800090E2E64FDD72C06D8A02D062DBE05D0DD
:100208002D50F2E12C04D8B0EFD782B202D08B8601
:10021800E7D78B96E5D7316A306A2F6A2E6A329013
:0802280032920001C8EF00F062
:020000040020DA
:08000000FFFFFFFFFFFFFFFF00
:020000040030CA
:0E000000FF01181EFF8081FF0FC00FE00F40B0
:00000001FF
