:100000000A128A11FC2F00308A000408840A820731
:10001000003468346F346C346134203468346534AF
:0C00200072346D3461346E346F3400347F
:100DFE008312031306150130F0000030F1000A12C1
:100E0E008A11CD278312031306110800F7008312EF
:100E1E00031306100F30F600760886057708F039B2
:100E2E00F600760886040A128A11FF260800831639
:100E3E00031386010A128A1150270A128A110130F1
:100E4E000A128A1179270A128A1101300A128A119E
:100E5E0034270A128A11322F332FFA007A088400AF
:100E6E000A128A1103200A128A11003A0319080085
:100E7E007A0884000A128A1103200A128A110A12B1
:100E8E008A11A3270A128A110130F9007908FA078C
:100E9E00352F30300A128A110D270A128A1120308E
:100EAE000A128A110D270A128A1128300A128A1183
:100EBE0079270A128A110E300A128A1179270A121C
:100ECE008A1101300A128A1179270A128A11063004
:100EDE000A128A1179270A128A1180300A128A118F
:100EEE0079270800F8008312031306100F30F6005E
:100EFE00760886057808F039F600760886040A1218
:100F0E008A11FF260A128A110F30F6007608831214
:100F1E000313860578080F39F60003300310F60D1B
:100F2E00FF3E031D952F0310760DF70077088604FC
:100F3E000A128A11FF260800F80083120313061402
:100F4E000F30F600760886057808F039F600760838
:100F5E0086040A128A11FF260A128A110F30F60031
:100F6E00760883120313860578080F39F6000330CE
:100F7E000310F60DFF3E031DBF2F0310760DF70075
:100F8E00770886040A128A11FF260800F201F3017F
:100F9E0073087102031DD52F72087002031C08001E
:100FAE00F401F5017508803AFF0080307F02031DC1
:100FBE00E22F793074020318F52F0130F40703186D
:100FCE00F50A0030F5077508803AFF0080307F0281
:100FDE00031DF32F79307402031CE42F0130F20746
:100FEE000318F30A0030F307CF2F83010A128A1178
:020FFE001E2FA4
:02400E0031FF80
:00000001FF
