:040000006CEF00F0B1
:06000800518294ED1BF093
:100018005180D8CF19F0E8CF1AF0E0CF1BF0FACF13
:100028001CF0FBCF1DF0E9CF1EF0EACF1FF0E1CFA7
:1000380020F0E2CF21F0D9CF22F0DACF23F0F3CFAE
:1000480024F0F4CF25F0F6CF26F0F7CF27F0F8CF3D
:1000580028F0F5CF29F051C02AF052C02BF053C038
:100068002CF054C02DF09EA007D0010E4A26000E99
:100078004B224C224D229E902DC054F02CC053F0A0
:100088002BC052F02AC051F029C0F5FF28C0F8FF54
:1000980027C0F7FF26C0F6FF25C0F4FF24C0F3FFF2
:1000A80023C0DAFF22C0D9FF21C0E2FF20C0E1FF50
:1000B8001FC0EAFF1EC0E9FF1DC0FBFF1CC0FAFFFE
:1000C8001BC0E0FF1AC0E8FF19C0D8FF519010000C
:0400D80093EF20F092
:10060000000000803F000020410000C84200007A46
:100610004400401C460050C347002474498096188B
:100620004B20BCBE4C286B6E4EF9021550EC78ADD9
:1006300060CAF249710000803FCDCCCC3D0AD7237F
:100640003C6F12833A17B7D138ACC52737BD378610
:100650003595BFD63377CC2B325F708930FFE6DB20
:100660002E08E53C1E6042A20D010000000A0000B9
:100670000064000000E803000010270000A08601CD
:100680000040420F008096980000E1F50500CA9AEC
:100690003B4465746563746F7220646520636F6C9E
:1006A0006F7200477261646F733D200025352E33F1
:1006B0006600413D2000423D2000523D2000563D55
:0306C00020000017
:1006C400000E0001916F000E926F400E936F400E6A
:1006D400946FDEC095F0DFC096F0E0C097F0E1C003
:1006E40098F01BEC17F091C040F192C041F193C017
:1006F40042F194C043F1000E0001D26F000ED36F9B
:10070400800ED46F3F0ED56F40C1C2F041C1C3F01B
:1007140042C1C4F043C1C5F0E2C095F0E3C096F015
:10072400E4C097F0E5C098F0DEC091F0DFC092F02D
:10073400E0C093F0E1C094F01BEC17F091C0BEF060
:1007440092C0BFF093C0C0F094C0C1F07CEC15F02F
:10075400BEC0D6F0BFC0D7F0C0C0D8F0C1C0D9F079
:1007640026EC1CF00001D8A02DD0E2C095F0E3C027
:1007740096F0E4C097F0E5C098F0DEC091F0DFC0D9
:1007840092F0E0C093F0E1C094F01BEC17F091C03C
:10079400BEF092C0BFF093C0C0F094C0C1F040C19D
:1007A400C2F041C1C3F042C1C4F043C1C5F07CEC06
:1007B40015F0BEC000F1BFC001F1C0C002F1C1C05C
:1007C40003F109D0000E0101006F000E016F800ECD
:1007D400026F3F0E036F00C150F101C151F102C11C
:1007E40052F103C153F1000E0001D26F000ED36F1A
:1007F400800ED46F3F0ED56F40C1C2F041C1C3F02B
:1008040042C1C4F043C1C5F0E6C095F0E7C096F01C
:10081400E8C097F0E9C098F0DEC091F0DFC092F034
:10082400E0C093F0E1C094F01BEC17F091C0BEF06F
:1008340092C0BFF093C0C0F094C0C1F07CEC15F03E
:10084400BEC0D6F0BFC0D7F0C0C0D8F0C1C0D9F088
:1008540026EC1CF00001D8A02DD0E6C095F0E7C02E
:1008640096F0E8C097F0E9C098F0DEC091F0DFC0E0
:1008740092F0E0C093F0E1C094F01BEC17F091C04B
:10088400BEF092C0BFF093C0C0F094C0C1F040C1AC
:10089400C2F041C1C3F042C1C4F043C1C5F07CEC15
:1008A40015F0BEC004F1BFC005F1C0C006F1C1C05F
:1008B40007F109D0000E0101046F000E056F800ED0
:1008C400066F3F0E076F04C154F105C155F106C10F
:1008D40056F107C157F1000E0001D26F000ED36F1D
:1008E400800ED46F3F0ED56F40C1C2F041C1C3F03A
:1008F40042C1C4F043C1C5F0EAC095F0EBC096F024
:10090400ECC097F0EDC098F0DEC091F0DFC092F03B
:10091400E0C093F0E1C094F01BEC17F091C0BEF07E
:1009240092C0BFF093C0C0F094C0C1F07CEC15F04D
:10093400BEC0D6F0BFC0D7F0C0C0D8F0C1C0D9F097
:1009440026EC1CF00001D8A02DD0EAC095F0EBC035
:1009540096F0ECC097F0EDC098F0DEC091F0DFC0E7
:1009640092F0E0C093F0E1C094F01BEC17F091C05A
:10097400BEF092C0BFF093C0C0F094C0C1F040C1BB
:10098400C2F041C1C3F042C1C4F043C1C5F07CEC24
:1009940015F0BEC008F1BFC009F1C0C00AF1C1C062
:1009A4000BF109D0000E0101086F000E096F800ED3
:1009B4000A6F3F0E0B6F08C13CF109C13DF10AC13A
:1009C4003EF10BC13FF154C1D2F055C1D3F056C131
:1009D400D4F057C1D5F050C1D6F051C1D7F052C1AF
:1009E400D8F053C1D9F026EC1CF00001D8A009D0EE
:1009F40054C10CF155C10DF156C10EF157C10FF19F
:100A040008D050C10CF151C10DF152C10EF153C1C6
:100A14000FF13CC1D2F03DC1D3F03EC1D4F03FC18F
:100A2400D5F00CC1D6F00DC1D7F00EC1D8F00FC16E
:100A3400D9F026EC1CF00001D8A009D03CC14CF13F
:100A44003DC14DF13EC14EF13FC14FF12ED054C1D5
:100A5400D2F055C1D3F056C1D4F057C1D5F050C12E
:100A6400D6F051C1D7F052C1D8F053C1D9F026EC19
:100A74001CF00001D8A009D054C110F155C111F1E6
:100A840056C112F157C113F108D050C110F151C130
:100A940011F152C112F153C113F110C14CF111C142
:100AA4004DF112C14EF113C14FF150C1D2F051C1F9
:100AB400D3F052C1D4F053C1D5F054C1D6F055C1CE
:100AC400D7F056C1D8F057C1D9F026EC1CF000017C
:100AD400D8A009D054C114F155C115F156C116F16D
:100AE40057C117F108D050C114F151C115F152C1C9
:100AF40016F153C117F114C1D2F015C1D3F016C1C8
:100B0400D4F017C1D5F03CC1D6F03DC1D7F03EC1F9
:100B1400D8F03FC1D9F026EC1CF00001D8A009D0D0
:100B24003CC134F13DC135F13EC136F13FC137F12D
:100B34002ED050C1D2F051C1D3F052C1D4F053C120
:100B4400D5F054C1D6F055C1D7F056C1D8F057C12D
:100B5400D9F026EC1CF00001D8A009D054C118F13A
:100B640055C119F156C11AF157C11BF108D050C132
:100B740018F151C119F152C11AF153C11BF118C135
:100B840034F119C135F11AC136F11BC137F134C141
:100B94002EF035C12FF036C130F037C131F0ABEC57
:100BA40020F02EC0BEF02FC0BFF030C0C0F031C066
:100BB400C1F04CC1C2F04DC1C3F04EC1C4F04FC12D
:100BC400C5F07CEC15F0BEC058F1BFC059F1C0C0EF
:100BD4005AF1C1C05BF14CC1BEF04DC1BFF04EC172
:100BE400C0F04FC1C1F034C1C2F035C1C3F036C149
:100BF400C4F037C1C5F07CEC15F0BEC020F1BFC015
:100C040021F1C0C022F1C1C023F120C191F021C162
:100C140092F022C193F023C194F0000E0001956F6D
:100C2400000E966F000E976F400E986F1BEC17F036
:100C340091C030F192C031F193C032F194C033F1DC
:100C44000101585159115A115B11D8A411D0000E49
:100C54001C6F000E1D6F000E1E6F000E1F6F1CC157
:100C640048F11DC149F11EC14AF11FC14BF1E6D241
:100C740030C1D2F031C1D3F032C1D4F033C1D5F098
:100C8400000E0001D66F000ED76F000ED86F3F0E16
:100C9400D96F26EC1CF00001D8B013D058C191F0E4
:100CA40059C192F05AC193F05BC194F020C195F000
:100CB40021C196F022C197F023C198F01BEC17F0E4
:100CC4002FD058C191F059C192F05AC193F05BC131
:100CD40094F0000E0001C26F000EC36F000EC46FCB
:100CE400400EC56F58C12EF059C12FF05AC130F0D3
:100CF4005BC131F0ABEC20F02EC0BEF02FC0BFF0D2
:100D040030C0C0F031C0C1F07CEC15F0BEC095F02D
:100D1400BFC096F0C0C097F0C1C098F01BEC17F0AC
:100D240091C01CF192C01DF193C01EF194C01FF13B
:100D3400000E0001956F000E966FC00E976F400E67
:100D4400986F4CC1C2F04DC1C3F04EC1C4F04FC145
:100D5400C5F050C12EF051C12FF052C130F053C133
:100D640031F0ABEC20F02EC0BEF02FC0BFF030C08D
:100D7400C0F031C0C1F07CEC15F0BEC091F0BFC032
:100D840092F0C0C093F0C1C094F01BEC17F091C076
:100D940044F192C045F193C046F194C047F1000E6E
:100DA4000001956F000E966F000E976F400E986FBE
:100DB40058C191F059C192F05AC193F05BC194F0BB
:100DC4001BEC17F091C0C2F092C0C3F093C0C4F002
:100DD40094C0C5F044C1BEF045C1BFF046C1C0F0E7
:100DE40047C1C1F07CEC15F0BEC038F1BFC039F189
:100DF400C0C03AF1C1C03BF138C191F039C192F0A1
:100E04003AC193F03BC194F058C195F059C196F0A2
:100E14005AC197F05BC198F01BEC17F091C024F114
:100E240092C025F193C026F194C027F1000E000171
:100E3400956F000E966FC00E976F400E986F4CC161
:100E4400C2F04DC1C3F04EC1C4F04FC1C5F054C18E
:100E54002EF055C12FF056C130F057C131F0ABEC34
:100E640020F02EC0BEF02FC0BFF030C0C0F031C0A3
:100E7400C1F07CEC15F0BEC091F0BFC092F0C0C0D0
:100E840093F0C1C094F01BEC17F091C044F192C0F0
:100E940045F193C046F194C047F1000E0001956FEF
:100EA400000E966F000E976F400E986F58C191F028
:100EB40059C192F05AC193F05BC194F01BEC17F046
:100EC40091C0C2F092C0C3F093C0C4F094C0C5F006
:100ED40044C1BEF045C1BFF046C1C0F047C1C1F036
:100EE4007CEC15F0BEC038F1BFC039F1C0C03AF196
:100EF400C1C03BF138C191F039C192F03AC193F0CD
:100F04003BC194F058C195F059C196F05AC197F07D
:100F14005BC198F01BEC17F091C028F192C029F145
:100F240093C02AF194C02BF1000E0001956F000EBE
:100F3400966FC00E976F400E986F4CC1C2F04DC1B2
:100F4400C3F04EC1C4F04FC1C5F03CC12EF03DC149
:100F54002FF03EC130F03FC131F0ABEC20F02EC099
:100F6400BEF02FC0BFF030C0C0F031C0C1F07CEC87
:100F740015F0BEC091F0BFC092F0C0C093F0C1C0E4
:100F840094F01BEC17F091C044F192C045F193C06A
:100F940046F194C047F1000E0001956F000E966F64
:100FA400000E976F400E986F58C191F059C192F09E
:100FB4005AC193F05BC194F01BEC17F091C0C2F0DE
:100FC40092C0C3F093C0C4F094C0C5F044C1BEF055
:100FD40045C1BFF046C1C0F047C1C1F07CEC15F07B
:100FE400BEC038F1BFC039F1C0C03AF1C1C03BF155
:100FF40038C191F039C192F03AC193F03BC194F0F9
:1010040058C195F059C196F05AC197F05BC198F058
:101014001BEC17F091C02CF192C02DF193C02EF16E
:1010240094C02FF101014C51501927E14D51511930
:1010340024E14E51521921E14F515319D8A41DD026
:1010440028C12EF029C12FF02AC130F02BC131F074
:10105400ABEC20F02EC0BEF02FC0BFF030C0C0F00B
:1010640031C0C1F02CC1C2F02DC1C3F02EC1C4F0F7
:101074002FC1C5F07CEC15F08BD001014C515419F3
:1010840042E14D5155193FE14E5156193CE14F5142
:101094005719D8A438D024C1C2F025C1C3F026C141
:1010A400C4F027C1C5F02CC12EF02DC12FF02EC1E4
:1010B40030F02FC131F0ABEC20F02EC0BEF02FC0C9
:1010C400BFF030C0C0F031C0C1F07CEC15F0BEC040
:1010D40044F1BFC045F1C0C046F1C1C047F144C1AD
:1010E400BEF045C1BFF046C1C0F047C1C1F0AB0E70
:1010F4000001C26FAA0EC36FAA0EC46F3E0EC56F65
:101104007CEC15F045D001014C513C1949E14D519D
:101114003D1946E14E513E1943E14F513F19D8A4C0
:101124003FD028C1C2F029C1C3F02AC1C4F02BC1E9
:10113400C5F024C12EF025C12FF026C130F027C1FF
:1011440031F0ABEC20F02EC0BEF02FC0BFF030C0A9
:10115400C0F031C0C1F07CEC15F0BEC044F1BFC09A
:1011640045F1C0C046F1C1C047F144C1BEF045C11C
:10117400BFF046C1C0F047C1C1F0AB0E0001C26F61
:10118400AA0EC36F2A0EC46F3F0EC56F7CEC15F018
:10119400BEC048F1BFC049F1C0C04AF1C1C04BF163
:1011A40001014BAF1BD048C1BEF049C1BFF04AC1D9
:1011B400C0F04BC1C1F0000E0001C26F000EC36F3E
:1011C400800EC46F3F0EC56F7CEC15F0BEC048F1B5
:1011D400BFC049F1C0C04AF1C1C04BF1000E0001CB
:1011E400D26F000ED36F800ED46F3F0ED56F48C1FF
:1011F400D6F049C1D7F04AC1D8F04BC1D9F026EC9A
:101204001CF00001D8B01AD048C1D2F049C1D3F0C3
:101214004AC1D4F04BC1D5F0000ED66F000ED76F83
:10122400800ED86F3F0ED96FDAEC1FF0D2C048F1B0
:10123400D3C049F1D4C04AF1D5C04BF148C13CF008
:1012440049C13DF04AC13EF04BC13FF0000E406E33
:10125400000E416EB40E426E430E436ED3EC13F097
:101264003CC048F13DC049F13EC04AF13FC04BF19A
:101274001CC13CF01DC13DF01EC13EF01FC13FF03A
:10128400000E406E000E416EC80E426E420E436E5A
:10129400D3EC13F03CC01CF13DC01DF13EC01EF167
:1012A4003FC01FF130C13CF031C13DF032C13EF0CE
:1012B40033C13FF0000E406E000E416EC80E426E08
:1012C400420E436ED3EC13F03CC030F13DC031F11B
:1012D4003EC032F13FC033F148C1DEF049C1DFF016
:1012E4004AC1E0F04BC1E1F01200E20E0101046FCB
:1012F400000E056F2AEF0EF0250E1A19D8B409D086
:10130400DEC0D9FFDFC0DAFF1AC1DFFF000128EF1A
:101314000EF0000E01010D6F000E0C6F000E0B6F2E
:10132400000E0A6FE0C0F6FFE1C0F7FF0800F550B9
:10133400EBEC20F0D8A038D0000E01010D6F000EA8
:101344000C6F0CC12EF00DC12FF0000E316E0A0E81
:10135400306ED8EC20F02EC00CF12FC00DF1D00E61
:101364000001E66FFF0EE76FE0C0F6FFE1C0F7FF94
:101374000800F550E86FE96BE651E827E751E923E7
:10138400E85101010C270001E95101010D2300017D
:10139400E04BE12BE0C0F6FFE1C0F7FF0800F55099
:1013A400EBEC20F0D8B0CDD7E0C0F6FFE1C0F7FFFA
:1013B4000800F5502E0AD8A433D001010B8D00018A
:1013C400E04BE12B000E0101196F000E186F1DD0C8
:1013D40018C12EF019C12FF0000E316E0A0E306EB6
:1013E400D8EC20F0E0C0F6FFE1C0F7FF0800F550AC
:1013F4002E26000E2F22D00E2E240101186FFF0E70
:101404002F20196F0001E04BE12BE0C0F6FFE1C093
:10141400F7FF0800F550EBEC20F0D8A00AD0D8D79D
:10142400000E0101196F000E186F0B8902D00B8595
:1014340014D0E0C0F6FFE1C0F7FF0001E04BE12B60
:101444000800F5CF1AF101011A51000AD8B439EF96
:101454000EF0660AD8B4EBD7FBD3070E0B15D8B43D
:101464004FD30BA904D0000E196F060E186F04C1D8
:10147400D9FF05C1DAFFDECF14F1DECF15F1DECFDF
:1014840016F1DECF17F1040E0427000E052317AF63
:1014940015D014C12EF015C12FF016C130F017C1AC
:1014A40031F0ABEC20F02EC014F12FC015F130C098
:1014B40016F131C017F1030E01010A13000E136F68
:1014C400000E126F1451151116111711D8B486D0CD
:1014D40016351735820F126F136BFF0E1323120785
:1014E400D8A0130712C12EF013C12FF0000E316ED5
:1014F400030E306ED8EC20F02EC012F12FC013F181
:1015040012C134F013C135F0000E376E0A0E366E78
:101514009EEC1EF034C012F135C013F1010113AF7B
:1015240003D01207D8A0130712510008ABEC11F036
:1015340091C00EF192C00FF193C010F194C011F15B
:101544000EC13CF00FC13DF010C13EF011C13FF09F
:1015540014C140F015C141F016C142F017C143F067
:10156400D3EC13F03CC00EF13DC00FF13EC010F1BE
:101574003FC011F10EC1D2F00FC1D3F010C1D4F0AD
:1015840011C1D5F0000E0001D66F000ED76F800E8A
:10159400D86F3F0ED96F26EC1CF00001D8B005D0EF
:1015A40001011207D8A0130719D00EC1D2F00FC140
:1015B400D3F010C1D4F011C1D5F0000E0001D66FE4
:1015C400000ED76F200ED86F410ED96F26EC1CF099
:1015D4000001D8A003D00101124B132B010119BF44
:1015E40006D0195121E10D0E185DD8B01DD014C1DB
:1015F400BEF015C1BFF016C1C0F017C1C1F018513B
:1016040076EC18F091C0C2F092C0C3F093C0C4F05D
:1016140094C0C5F07CEC15F0BEC014F1BFC015F148
:10162400C0C016F1C1C017F1010113BF06D0135198
:1016340024E10A0E125DD8B020D0145115111611F0
:101644001711D8B467D014C19AF015C19BF016C114
:101654009CF017C19DF0D0EC1DF000019A519B1134
:101664009C119D11D8A456D0010113BF53D013511E
:1016740004E1020E125DD8A04DD00EC1D2F00FC10C
:10168400D3F010C1D4F011C1D5F05F0E0001D66FB4
:10169400700ED76F890ED86F400ED96F26EC1CF0F0
:1016A4000001D8B003D00101F70E02D00101F80EF9
:1016B4001227FF0E13231251ABEC11F091C00EF15F
:1016C40092C00FF193C010F194C011F114C12EF027
:1016D40015C12FF016C130F017C131F00EC132F030
:1016E4000FC133F010C134F011C135F000EC1BF020
:1016F4002EC006F12FC007F130C008F131C009F146
:10170400000E0101146F000E156F000E166F000E0F
:10171400176F3CD014C19AF015C19BF016C19CF010
:1017240017C19DF0D0EC1DF09AC006F19BC007F1E3
:101734009CC008F19DC009F114C1D2F015C1D3F0C9
:1017440016C1D4F017C1D5F006C12EF007C12FF091
:1017540008C130F009C131F0000EBFEC19F02EC001
:10176400D6F02FC0D7F030C0D8F031C0D9F0DAECC1
:101774001FF0D2C014F1D3C015F1D4C016F1D5C0F6
:1017840017F1000E0101136F000E126F010E1A6F94
:101794000A0E1A19D8B418D01A51040D690EF3247C
:1017A400F66E060EF420F76E0900F550065D09008A
:1017B400F55007590900F55008590900F550095921
:1017C400D8A002D01A2BE4D71AC1E6F00001E76BC7
:1017D400E6BFE707010118510001E627010119518D
:1017E4000001E723010112510001E6270101135111
:1017F4000001E723E65101010C5F0001E7510101FB
:101804000D5B18511911D8B403D00C07D8A00D07DB
:10181400030E0A150001E66F000E01010B1500010D
:10182400E76FE651E711D8B40ED009D0DEC0D9FF76
:10183400DFC0DAFF200EDF6E0001DE4BDF2B01017B
:101844000C07D8A00D0701010DBF05D00D51EEE125
:101854000C05D8B0EBD7030E0A150001E66F000E95
:1018640001010B150001E76FE651E711D8B453D01D
:10187400DEC0D9FFDFC0DAFF2D0EDF6E4AD006C10D
:101884002EF007C12FF008C130F009C131F0010179
:101894001A51040D690EF324F66E060EF420F76E49
:1018A4000900F5CF32F00900F5CF33F00900F5CF88
:1018B40034F00A00F5CF35F0E0EC1EF02EC00EF146
:1018C4002FC00FF130C010F131C011F10EC12EF054
:1018D4000FC12FF010C130F011C131F00A0E326E79
:1018E400000E336E000E346E000E356E59EC1FF090
:1018F4002EC00EF12FC00FF130C010F131C011F124
:1019040001010E51300FDEC0D9FFDFC0DAFFDF6EF8
:101914000001DE4BDF2B01011A071A29D8B40ED0BF
:10192400AED7DEC0D9FFDFC0DAFF300EDF6E0001B4
:10193400DE4BDF2B01011207D8A0130713BF05D01C
:101944001351EFE11205D8B0ECD719BF09D01951E2
:1019540004E1090E185DD8A003D0080E1A6F02D056
:1019640018C11AF11A51185F000E1ABFFF0E195B45
:101974001A51D8B409D0DEC0D9FFDFC0DAFF2E0E69
:10198400DF6E0001DE4BDF2B01011A51ABEC11F0CD
:1019940091C000F192C001F193C002F194C003F12F
:1019A40014C140F015C141F016C142F017C143F013
:1019B40000C13CF001C13DF002C13EF003C13FF063
:1019C400D3EC13F03CC09AF03DC09BF03EC09CF0B9
:1019D4003FC09DF0D0EC1DF09AC006F19BC007F10A
:1019E4009CC008F19DC009F173D006C12EF007C157
:1019F4002FF008C130F009C131F001011A51040D72
:101A0400690EF324F66E060EF420F76E0900F5CF86
:101A140032F00900F5CF33F00900F5CF34F00A00B5
:101A2400F5CF35F0E0EC1EF02EC00EF12FC00FF113
:101A340030C010F131C011F10EC12EF00FC12FF0E2
:101A440010C130F011C131F00A0E326E000E336E47
:101A5400000E346E000E356E59EC1FF02EC00EF1E0
:101A64002FC00FF130C010F131C011F101010E513E
:101A7400300FDEC0D9FFDFC0DAFFDF6E0001DE4BBE
:101A8400DF2B06C12EF007C12FF008C130F009C1C9
:101A940031F001011A51040D690EF324F66E060E9D
:101AA400F420F76E0900F5CF32F00900F5CF33F0DA
:101AB4000900F5CF34F00A00F5CF35F059EC1FF0EA
:101AC4002EC006F12FC007F130C008F131C009F172
:101AD40001011A071A29D8B40ED087D7DEC0D9FF5E
:101AE400DFC0DAFF300EDF6E0001DE4BDF2B0101B9
:101AF4001807D8A0190718511911D8B4A9D0EED7CE
:101B040018511911D8A408D0065107110811091148
:101B1400D8A402D0184B192B800E1ABF7F0E0001D7
:101B2400E66F010118511A5D1951800A0001E65946
:101B3400D8B003D018C11AF115D001011951800A87
:101B44000001E66F01011A51185D800E1ABF7F0E65
:101B54000001E659D8B006D001011A51186F196B6B
:101B640018BF190701010C510D11D8B411D0030E7F
:101B74000A150001E66F000E01010B150001E76F65
:101B8400E651E711D8B404D001010C07D8A00D0721
:101B940001010BAD18D00C51185D1951800A0001D8
:101BA400E66F01010D51800A0001E659D8B006D054
:101BB400010118510C5F19510D5B05D0000E010194
:101BC4000D6F000E0C6F800E1ABF7F0E0001E66FC2
:101BD40001010C511A5D0D51800A0001E659D8B07B
:101BE40008D001011A510C5F000E1ABFFF0E0D5BE5
:101BF40005D0000E01010D6F000E0C6F0C510D117C
:101C0400D8B411D0DEC0D9FFDFC0DAFF200EDF6EFA
:101C14000001DE4BDF2B01010C07D8A00D070C518E
:101C24000D11D8A4EFD7030E0A150001E66F000EBC
:101C340001010B150001E76FE651E711D8B408D094
:101C4400DEC0D9FFDFC0DAFF2D0EDF6EDE4BDF2BE7
:101C5400E0C0F6FFE1C0F7FF0001E04BE12B080014
:101C6400F5CF1AF101011A51D8A47EEF09F0DEC0B4
:101C7400D9FFDFC0DAFF000EDF6E1200000E010193
:101C8400716F000E726F000E736F000E746F959675
:101C940095949592959095983FEC1EF0910E326E26
:101CA400060E336E8CEC1FF0CD8ECD9ACD98CD926E
:101CB400CD809F909D8012EC21F0D08EF28EF28C1C
:101CC400020E5DEC20F0100E8C1A020E21EC20F0B6
:101CD400000E0101706F1D0E706501D028D0340E06
:101CE4000001EE6FF10EE82EFED7EE2FFCD700D0E8
:101CF40071C1BEF072C1BFF073C1C0F074C1C1F054
:101D0400B7EC1CF0AAC0C2F0ABC0C3F0ACC0C4F0C6
:101D1400ADC0C5F07CEC15F0BEC071F1BFC072F16E
:101D2400C0C073F1C1C074F10101702BD4D771C16B
:101D340091F072C192F073C193F074C194F0000EEB
:101D44000001956F000E966FF00E976F410E986F1D
:101D54001BEC17F091C071F192C072F193C073F152
:101D640094C074F171C16CF172C16DF173C16EF103
:101D740074C16FF16CC1DEF06DC1DFF06EC1E0F0D3
:101D84006FC1E1F0000E0001E26F600EE36FEB0E35
:101D9400E46F440EE56F000EE66F340EE76F000E3D
:101DA400E86F460EE96F44EC1DF0DEC071F1DFC050
:101DB40072F1E0C073F1E1C074F1750E0001DE6FE1
:101DC400010EDF6FAC0EE06F060EE16F71C1E2F041
:101DD40072C1E3F073C1E4F074C1E5F077EC09F08B
:101DE400020E316E010E79EC20F0B60E326E060E44
:101DF400336E8CEC1FF0750E326E010E336E8CEC6C
:101E04001FF0000E0101716F000E726F000E736FF0
:101E1400000E746F1F0E0001EF6F710EEE6F1E0E39
:101E2400E82EFED7EE2FFCD7EF2FFAD700F0100ED6
:101E34008C1A000E21EC20F0000E0101706F1D0EB3
:101E4400706501D028D0340E0001EE6FF10EE82E3B
:101E5400FED7EE2FFCD700D071C1BEF072C1BFF027
:101E640073C1C0F074C1C1F0B7EC1CF0AAC0C2F0D9
:101E7400ABC0C3F0ACC0C4F0ADC0C5F07CEC15F091
:101E8400BEC071F1BFC072F1C0C073F1C1C074F1C2
:101E94000101702BD4D771C191F072C192F073C15A
:101EA40093F074C194F0000E0001956F000E966FCC
:101EB400F00E976F410E986F1BEC17F091C071F103
:101EC40092C072F193C073F194C074F171C160F166
:101ED40072C161F173C162F174C163F160C1DEF07A
:101EE40061C1DFF062C1E0F063C1E1F09A0E00016C
:101EF400E26FD90EE36F390EE46F440EE56F330ED3
:101F0400E66F7B0EE76F380EE86F450EE96F44EC21
:101F14001DF0DEC071F1DFC072F1E0C073F1E1C009
:101F240074F1750E0001DE6F010EDF6FAC0EE06F11
:101F3400060EE16F71C1E2F072C1E3F073C1E4F027
:101F440074C1E5F077EC09F0020E316E010E79EC04
:101F540020F0BA0E326E060E336E8CEC1FF0750E46
:101F6400326E010E336E8CEC1FF0000E0101716FA6
:101F7400000E726F000E736F000E746F1F0E00015F
:101F8400EF6F710EEE6F1E0EE82EFED7EE2FFCD70C
:101F9400EF2FFAD700F0100E8C1A030E21EC20F06C
:101FA400000E0101706F1D0E706501D028D0340E33
:101FB4000001EE6FF10EE82EFED7EE2FFCD700D015
:101FC40071C1BEF072C1BFF073C1C0F074C1C1F081
:101FD400B7EC1CF0AAC0C2F0ABC0C3F0ACC0C4F0F4
:101FE400ADC0C5F07CEC15F0BEC071F1BFC072F19C
:101FF400C0C073F1C1C074F10101702BD4D771C199
:1020040091F072C192F073C193F074C194F0000E18
:102014000001956F000E966FF00E976F410E986F4A
:102024001BEC17F091C071F192C072F193C073F17F
:1020340094C074F171C164F172C165F173C166F148
:1020440074C167F164C1DEF065C1DFF066C1E0F020
:1020540067C1E1F09A0E0001E26FD90EE36FFC0E46
:10206400E46F430EE56F000EE66FA00EE76F180EE7
:10207400E86F450EE96F44EC1DF0DEC071F1DFC07E
:1020840072F1E0C073F1E1C074F1750E0001DE6F0E
:10209400010EDF6FAC0EE06F060EE16F71C1E2F06E
:1020A40072C1E3F073C1E4F074C1E5F077EC09F0B8
:1020B400020E316E010E79EC20F0BE0E326E060E69
:1020C400336E8CEC1FF0750E326E010E336E8CEC99
:1020D4001FF0000E0101716F000E726F000E736F1E
:1020E400000E746F1F0E0001EF6F710EEE6F1E0E67
:1020F400E82EFED7EE2FFCD7EF2FFAD700F0100E04
:102104008C1A010E21EC20F0000E0101706F1D0EDF
:10211400706501D01FD071C1BEF072C1BFF073C130
:10212400C0F074C1C1F0B7EC1CF0AAC0C2F0ABC0DF
:10213400C3F0ACC0C4F0ADC0C5F07CEC15F0BEC0BB
:1021440071F1BFC072F1C0C073F1C1C074F101017B
:10215400702BDDD771C191F072C192F073C193F00D
:1021640074C194F0000E0001956F000E966FF00E8E
:10217400976F410E986F1BEC17F091C071F192C0EC
:1021840072F193C073F194C074F171C168F172C1BA
:1021940069F173C16AF174C16BF168C1DEF069C1A0
:1021A400DFF06AC1E0F06BC1E1F0000E0001E26F04
:1021B400200EE36F130EE46F440EE56F000EE66F1E
:1021C400200EE76F470EE86F450EE96F44EC1DF0F3
:1021D400DEC071F1DFC072F1E0C073F1E1C074F1EF
:1021E400750E0001DE6F010EDF6FAC0EE06F060EA0
:1021F400E16F71C1E2F072C1E3F073C1E4F074C144
:10220400E5F077EC09F0020E316E010E79EC20F066
:10221400B20E326E060E336E8CEC1FF0750E326EFB
:10222400010E336E8CEC1FF0000E0101716F000E75
:10223400726F000E736F000E746F1F0E0001EF6F4C
:10224400710EEE6F1E0EE82EFED7EE2FFCD7EF2F89
:10225400FAD700F01F0E0001EF6F710EEE6F1E0E25
:10226400E82EFED7EE2FFCD7EF2FFAD700F06CC183
:10227400DEF06DC1DFF06EC1E0F06FC1E1F060C16E
:10228400E2F061C1E3F062C1E4F063C1E5F064C16E
:10229400E6F065C1E7F066C1E8F067C1E9F068C13E
:1022A400EAF069C1EBF06AC1ECF06BC1EDF062ECED
:1022B40003F0DEC05CF1DFC05DF1E0C05EF1E1C0BF
:1022C4005FF1750E0001DE6F010EDF6FAC0EE06F83
:1022D400060EE16F5CC1E2F05DC1E3F05EC1E4F0C3
:1022E4005FC1E5F077EC09F0020E316E010E79EC76
:1022F40020F0A30E326E060E336E8CEC1FF0750EBA
:10230400326E010E336E8CEC1FF0000E0101716F02
:10231400000E726F000E736F000E746F1F0E0001BB
:10232400EF6F710EEE6F1E0EE82EFED7EE2FFCD768
:10233400EF2FFAD700F01F0E0001EF6F710EEE6F52
:102344001E0EE82EFED7EE2FFCD7EF2FFAD700F0A3
:10235400BAD40001996F000199AF12D1996D9951C6
:10236400800A120FD8A09AD0000E376E0A0E366E6D
:10237400000E316E640E306E99512E6E2F6A2EBE91
:102384002F0621EC1FF02EC034F02FC035F09EEC48
:102394001EF0D89034363536D89034363536240E7F
:1023A4003426000E3522350E3424F66E060E352002
:1023B400F76E0900F5CF40F00900F5CF41F00900B0
:1023C400F5CF42F00A00F5CF43F0000E376E640EED
:1023D400366E00019951346E356A34BE35069EEC72
:1023E4001EF0D89034363536D89034363536480E0B
:1023F4003426000E3522350E3424F66E060E3520B2
:10240400F76E0900F5CF3CF00900F5CF3DF0090067
:10241400F5CF3EF00A00F5CF3FF0D3EC13F03CC00B
:1024240095F03DC096F03EC097F03FC098F095C03F
:102434003CF096C03DF097C03EF098C03FF0000ECF
:10244400316E0A0E306E000199512E6E2F6A2EBE27
:102454002F0621EC1FF0D8902E362F36D8902E362A
:102464002F36350E2E24F66E060E2F20F76E090039
:10247400F5CF40F00900F5CF41F00900F5CF42F067
:102484000A00F5CF43F0D3EC13F03CC091F03DC00B
:1024940092F03EC093F03FC094F0120000019951B5
:1024A400800A750FD8A056D0000E376E0A0E366E0D
:1024B4009951346E356A34BE35069EEC1EF0D890C0
:1024C40034363536D89034363536240E3426000E5C
:1024D4003522350E3424F66E060E3520F76E0900CB
:1024E400F5CF3CF00900F5CF3DF00900F5CF3EF003
:1024F4000A00F5CF3FF0000E316E0A0E306E000177
:1025040099512E6E2F6A2EBE2F0621EC1FF0D89003
:102514002E362F36D8902E362F36350E2E24F66EC4
:10252400060E2F20F76E0900F5CF40F00900F5CF15
:1025340041F00900F5CF42F00A00F5CF43F0D3ECA7
:1025440013F03CC091F03DC092F03EC093F03FC008
:1025540094F0120000019951040D350EF324F66E27
:10256400060EF420F76E0900F5CF91F00900F5CFBF
:1025740092F00900F5CF93F00A00F5CF94F0120021
:102584009951800A120FD8A09AD0000E376E0A0E05
:10259400366E000E316E640E306E99512E6E2F6AB7
:1025A4002EBE2F0621EC1FF02EC034F02FC035F0C4
:1025B4009EEC1EF0D89034363536D8903436353605
:1025C400240E3426000E3522010E3424F66E060E37
:1025D4003520F76E0900F5CF40F00900F5CF41F042
:1025E4000900F5CF42F00A00F5CF43F0000E376E34
:1025F400640E366E00019951346E356A34BE350668
:102604009EEC1EF0D89034363536D89034363536B4
:10261400480E3426000E3522010E3424F66E060EC2
:102624003520F76E0900F5CF3CF00900F5CF3DF0F9
:102634000900F5CF3EF00A00F5CF3FF0D3EC13F0DC
:102644003CC095F03DC096F03EC097F03FC098F076
:1026540095C03CF096C03DF097C03EF098C03FF066
:10266400000E316E0A0E306E000199512E6E2F6AE3
:102674002EBE2F0621EC1FF0D8902E362F36D89080
:102684002E362F36010E2E24F66E060E2F20F76EF0
:102694000900F5CF40F00900F5CF41F00900F5CF6E
:1026A40042F00A00F5CF43F0D3EC13F03CC091F0B4
:1026B4003DC092F03EC093F03FC094F01200000180
:1026C4009951800A750FD8A056D0000E376E0A0EA5
:1026D400366E9951346E356A34BE35069EEC1EF062
:1026E400D89034363536D89034363536240E3426E0
:1026F400000E3522010E3424F66E060E3520F76ED8
:102704000900F5CF3CF00900F5CF3DF00900F5CF05
:102714003EF00A00F5CF3FF0000E316E0A0E306E27
:10272400000199512E6E2F6A2EBE2F0621EC1FF048
:10273400D8902E362F36D8902E362F36010E2E24D2
:10274400F66E060E2F20F76E0900F5CF40F0090053
:10275400F5CF41F00900F5CF42F00A00F5CF43F080
:10276400D3EC13F03CC091F03DC092F03EC093F026
:102774003FC094F0120000019951040D010EF3249E
:10278400F66E060EF420F76E0900F5CF91F00900FD
:10279400F5CF92F00900F5CF93F00A00F5CF94F04D
:1027A40012003F50800B0001846F3F503F248A6F1A
:1027B4003EBE8A818A51D8B40DD08A29D8A408D0C3
:1027C400000E3C6E000E3D6E000E3E6E000E3F6E1F
:1027D4003E8E08D0000E3C6E000E3D6E000E3E6E26
:1027E400000E3F6E4350800B841B43504324856F7F
:1027F40042BE85818551D8B40DD08529D8A408D08E
:10280400000E406E000E416E000E426E000E436ECE
:10281400428E08D0000E406E000E416E000E426ED5
:10282400000E436E8551D8B403D08A51D8A409D080
:10283400000E3C6E000E3D6E000E3E6E000E3F6EAE
:10284400120042503C02F3CF8FF0F4CF90F08F513E
:10285400866F876B886B896B90518B6F8C6B8D6BDC
:102864008E6B41503D02F3CF8FF0F4CF90F08F5137
:102874008627000E87238823892390518B27000EF7
:102884008C238D238E2340503E02F3CF8FF0F4CF60
:1028940090F08F518627000E872388238923905137
:1028A4008B27000E8C238D238E2388C089F087C04C
:1028B40088F086C087F0866B40503D02F3CF8FF0DE
:1028C400F4CF90F08F51862790518723000E8823F0
:1028D400000E892341503C02F3CF8FF0F4CF90F0E7
:1028E4008F51862790518723000E8823000E892359
:1028F40088C089F087C088F086C087F0866B405016
:102904003C02F3CF8FF0F4CF90F08F518627905193
:102914008723000E8823000E892342503D02F3CF03
:102924008FF0F4CF90F08F518B2790518C23000EB1
:102934008D23000E8E2341503E02F3CF8FF0F4CF4F
:1029440090F08F518B2790518C23000E8D23000E15
:102954008E2342503E02F3CF8FF0F4CF90F08F518C
:10296400806F9051816F826B836B82C083F081C0D2
:1029740082F080C081F0806B80518B2781518C2341
:1029840082518D2383518E2386C080F087C081F0CD
:1029940088C082F089C083F0190E05D0D8908333A3
:1029A400823381338033E82EF9D780518B278151CC
:1029B4008C2382518D2383518E2388C089F087C054
:1029C40088F086C087F0866B85518AC080F0816B61
:1029D4008027000E8123820E80258F6FFF0E8121B8
:1029E400906F0FD0D8908B378C378D378E3789BF47
:1029F4008B81D89086378737883789378F07D8A057
:102A040090078DAFEFD7000E856F89AF16D0FF0EFC
:102A14008615806FFF0E8715816FFF0E8815826FF4
:102A24007F0E8915836F8051811182118311D8A47F
:102A340002D08BA102D0010E856F8551D8B41FD06E
:102A4400010E8B27000E8C238D238E238EA117D08D
:102A54008BC080F08CC081F08DC082F08EC083F07A
:102A64008335833382338133803380C08BF081C0DC
:102A74008CF082C08DF083C08EF08F4B902B90BF72
:102A84000DD0905103E18F29D8A008D0000E8B6F90
:102A9400000E8C6F800E8D6F7F0E20D090BF05D0FE
:102AA40090510EE18F05D8B00BD0000E8B6F000E45
:102AB4008C6F000E8D6F000E8E6F000E846F0FD022
:102AC4008FC08AF0FF0E8B17FF0E8C177F0E8D17A9
:102AD400000E8E178AB18D8FD8908A318E6F8451F3
:102AE4008E138BC03CF08CC03DF08DC03EF08EC088
:102AF4003FF012000001C151800BCE6FC151C125BE
:102B0400D06FC0BFD081D051D8B40DD0D029D8A4B3
:102B140008D0000EBE6F000EBF6F000EC06F000E17
:102B2400C16FC08F06D0000EBE6F000EBF6F000EC7
:102B3400C06F000EC16FC551800BCF6FCE51CF193E
:102B4400D8A4CE8DC551C525CF6FC4BFCF81CF5179
:102B5400D8B40DD0CF29D8A408D0000EC26F000E6F
:102B6400C36F000EC46F000EC56FC48F06D0000E75
:102B7400C26F000EC36F000EC46F000EC56FD0513C
:102B8400CF5DD8B022D0CEAD02D0800ECE1BD0C047
:102B9400D1F0CFC0D0F0D1C0CFF0BEC0D1F0C2C010
:102BA400BEF0D1C0C2F0BFC0D1F0C3C0BFF0D1C02D
:102BB400C3F0C0C0D1F0C4C0C0F0D1C0C4F0C1C023
:102BC400D1F0C5C0C1F0D1C0C5F0000ED16FD05155
:102BD400C66FC76BC61FC71FC64BC72BCF51C86F65
:102BE400C96BC651C827C751C923C9BF2CD0C95105
:102BF40004E11A0EC85DD8A026D0BE51BF11C01181
:102C0400C111D8B402D0010E01D0000ED16F000E54
:102C1400BE6F000EBF6F000EC06F000EC16FCFC03D
:102C2400D0F015D0D1A105D0D890D1310109D16F00
:102C340002D0D890D133BEB1D18FC135C133C033A6
:102C4400BF33BE33D02BCF51D05DD8A0EBD7CEBD90
:102C540029D0D051D8A409D0000EBE6F000EBF6F8A
:102C6400000EC06F000EC16F1200C251BE27C351C7
:102C7400BF23C451C023C551C123C1A183D0D1A155
:102C840006D0D890D133D1510109D16F02D0D89058
:102C9400D133BEB1D18FC135C133C033BF33BE339D
:102CA400D02B70D0C251BE5DC351BF59C451C0595D
:102CB400C151800AC66FC551800AC659D8B036D0F2
:102CC400BEC0C6F0BFC0C7F0C0C0C8F0C1C0C9F024
:102CD400C61FC71FC81FC91FC62B000EC723C82382
:102CE400C923C251C625CA6FC351C721CB6FC45172
:102CF400C821CC6FC551C921CD6FFF0ECA25BE6F47
:102D0400FF0ECB21BF6FFF0ECC21C06FFF0ECD2174
:102D1400C16F800ECE1BD16DD151D8A40FD0010E3E
:102D2400BE27000EBF23C023C12308D0C251BE5FFB
:102D3400C351BF5BC451C05BC551C15BBE51BF1120
:102D4400C011C111D8A41CD0D151D8A419D0000EDF
:102D5400BE6F000EBF6F000EC06F000EC16F120079
:102D6400D890BE37BF37C037C137D1BFBE81D1A1DC
:102D740002D0D88001D0D890D137D051D8A4D00770
:102D8400C0AFEED7000ECF6FD1AF0AD0D1C0C6F01E
:102D94007F0EC617D8A402D0BEA102D0010ECF6FF9
:102DA400CF51D8B420D0010EBE27000EBF23C023BC
:102DB400C123C1A118D0BEC0C6F0BFC0C7F0C0C0F7
:102DC400C8F0C1C0C9F0C935C933C833C733C63325
:102DD400C6C0BEF0C7C0BFF0C8C0C0F0C9C0C1F013
:102DE400D029D8A4D02BD029D8B403D0D051D8A47A
:102DF4000DD0000EBE6F000EBF6F000EC06F000E30
:102E0400C16FD051D8A402D0000ECE6FD0A102D091
:102E1400C08F01D0C09FD890D031C16FCEBFC18FB9
:102E2400BEC0BEF0BFC0BFF0C0C0C0F0C1C0C1F0E2
:102E3400120000019451800B9D6F94519425A86F4A
:102E440093BFA881A851D8B40DD0A829D8A408D07C
:102E5400000E916F000E926F000E936F000E946F30
:102E6400938F06D0000E916F000E926F000E936F39
:102E7400000E946F9851800B9D1B98519825A96F53
:102E840097BFA981A951D8B40DD0A929D8A408D035
:102E9400000E956F000E966F000E976F000E986FE0
:102EA400978F06D0000E956F000E966F000E976FE9
:102EB400000E986F9551961197119811D8A415D0BA
:102EC400000E916F000E926F000E936F000E946FC0
:102ED400800E93137F0E941391C091F092C092F0E0
:102EE40093C093F094C094F01200A851D8A411D0C8
:102EF400000E916F000E926F000E936F000E946F90
:102F040091C091F092C092F093C093F094C094F069
:102F14001200A951996F9A6B991F9A1F994B9A2B7A
:102F2400A8519B6F9C6B99519B279A519C237F0EB0
:102F34009B25A26F000E9C21A36F91C09EF092C0AE
:102F44009FF093C0A0F094C0A1F0000E916F000E0A
:102F5400926F000E936F000E946F000EA46F000E1C
:102F6400A56F000EA66F000EA76F000EA96F28D0E4
:102F7400A951D8B411D0D8909E379F37A037A13724
:102F8400D8909137923793379437A7BF9181D890CF
:102F9400A437A537A637A73795519E5D96519F59FB
:102FA4009751A0599851A159D8A009D0A78D9551EE
:102FB4009E5F96519F5B9751A05B9851A15BA92B93
:102FC400190EA965D5D79E519F11A011A111D8B48E
:102FD40011D0A4810FD0D89091379237933794377A
:102FE400A7BF9181D890A437A537A637A737A207E2
:102FF400D8A0A30793AFEFD7000EA96FA7AF16D041
:10300400FF0EA415996FFF0EA5159A6FFF0EA61556
:103014009B6F7F0EA7159C6F99519A119B119C1160
:10302400D8A402D091A102D0010EA96FA951D8B49D
:103034001FD0010E9127000E92239323942394A171
:1030440017D091C099F092C09AF093C09BF094C0AD
:103054009CF09C359C339B339A33993399C091F0FF
:103064009AC092F09BC093F09CC094F0A24BA32B07
:10307400A3BF10D0A35103E1A229D8A00BD0000E06
:10308400A36FA269000E916F000E926F000E936FF2
:10309400000E946FA3BF05D0A35111E1A205D8B0CF
:1030A4000ED0000EA36F000EA26F000E916F000EE3
:1030B400926F000E936F000E946F000E9D6FA2C06E
:1030C400A8F0A8A102D0938F01D0939FD890A831E3
:1030D400946F9D51941391C091F092C092F093C05B
:1030E40093F094C094F0120000019D6F6D0E0001E6
:1030F4009D65ACD0000E376E0A0E366E000E316E32
:10310400640E306E9DC02EF02F6A21EC1FF02EC08D
:1031140034F02FC035F09EEC1EF0D890343635369E
:10312400D89034363536240E3426000E3522350E2A
:103134003424F66E060E3520F76E0900F5CF40F004
:103144000900F5CF41F00900F5CF42F00A00F5CFB0
:1031540043F0000E376E640E366E9DC034F0356A4F
:103164009EEC1EF0D89034363536D8903436353649
:10317400480E3426000E3522350E3424F66E060E23
:103184003520F76E0900F5CF3CF00900F5CF3DF08E
:103194000900F5CF3EF00A00F5CF3FF0D3EC13F071
:1031A4003CC099F03DC09AF03EC09BF03FC09CF0FB
:1031B400000E316E0A0E306E9DC02EF02F6A21EC87
:1031C4001FF0D8902E362F36D8902E362F36350E47
:1031D4002E24F66E060E2F20F76E0900F5CF40F070
:1031E4000900F5CF41F00900F5CF42F00A00F5CF10
:1031F40043F099C03CF09AC03DF09BC03EF09CC0A7
:103204003FF0D3EC13F03CC095F03DC096F03EC0C7
:1032140097F03FC098F095C03CF096C03DF097C041
:103224003EF098C03FF0000E406E000E416E000E5E
:10323400426E3F0E436ED3EC13F03CC091F03DC0A0
:1032440092F03EC093F03FC094F012000A0E0001C9
:103254009D656BD0000E316E0A0E306E9DC02EF04F
:103264002F6A21EC1FF0D8902E362F36D8902E36A8
:103274002F36350E2E24F66E060E2F20F76E09001B
:10328400F5CF40F00900F5CF41F00900F5CF42F049
:103294000A00F5CF43F0000E376E0A0E366E9DC05D
:1032A40034F0356A9EEC1EF0D89034363536D8901A
:1032B40034363536240E3426000E3522350E3424A9
:1032C400F66E060E3520F76E0900F5CF3CF00900C6
:1032D400F5CF3DF00900F5CF3EF00A00F5CF3FF001
:1032E400D3EC13F03CC099F03DC09AF03EC09BF083
:1032F4003FC09CF099C03CF09AC03DF09BC03EF0AA
:103304009CC03FF0000E406E000E416E000E426EF7
:103314003F0E436ED3EC13F03CC091F03DC092F0ED
:103324003EC093F03FC094F0120000019D51040D83
:10333400350EF324F66E060EF420F76E0900F5CF71
:103344003CF00900F5CF3DF00900F5CF3EF00A004E
:10335400F5CF3FF0000E406E000E416E000E426E3F
:103364003F0E436ED3EC13F03CC091F03DC092F09D
:103374003EC093F03FC094F01200366E3650D8A48D
:1033840031AE1AD02EC032F02FC033F030C034F03A
:1033940031C035F0321E331E341E351E322A000E63
:1033A40033223422352232C038F033C039F034C0ED
:1033B4003AF035C03BF008D02EC038F02FC039F0B9
:1033C40030C03AF031C03BF02E502F103010311085
:1033D400D8A409D0000E2E6E000E2F6E000E306E93
:1033E400000E316E1200960E376E06D0372AD89032
:1033F4003B323A3239323832000E3814326E000E13
:103404003914336E000E3A14346EFE0E3B14356ECE
:103414003250331034103510D8B40DD0E7D7372AD2
:10342400010E3826000E39223A223B22D8903B3234
:103434003A3239323832000E3814326E000E3914F2
:10344400336E000E3A14346EFF0E3B14356E325058
:10345400331034103510D8B407D0E1D73706D890DC
:10346400383639363A363B363ABE03D0020E376028
:10347400F5D737B008D0FF0E3816FF0E39167F0E79
:103484003A16FF0E3B16D890373237C032F0336A03
:10349400346A356A32C035F0346A336A326A32507B
:1034A40038123350391234503A1235503B123650D8
:1034B400D8A431AE01D03B8E38C02EF039C02FF0E5
:1034C4003AC030F03BC031F0120030C036F0376AF9
:1034D400386A2F34363601E3378036503E6E3E501C
:1034E400D8A409D0000E2E6E000E2F6E000E306E82
:1034F400000E316E120034C036F0376A386A333445
:10350400363601E3378036503D6E3D50D8A409D09D
:10351400000E2E6E000E2F6E000E306E000E316EF9
:1035240012002F8EFF0E2E16FF0E2F16000E3016D1
:10353400338EFF0E3216FF0E3316000E3416000EB5
:10354400396E000E3A6E000E3B6E000E3C6E7F0E1E
:103554003E5E3D50980F3E5E180E3D6ED890393653
:103564003A363B363C3632502E5C33502F5834506A
:103574003058D8A007D032502E5E33502F5A3450D2
:10358400305A3980D8902E362F3630363D2EE6D735
:103594003EAE16D03E50800A970FD8B009D0000E28
:1035A4002E6E000E2F6E000E306E000E316E120065
:1035B400D8903C323B323A3239323E3EF9D715D0BC
:1035C400170E3E640FD0000E2E6E000E2F6E000EEE
:1035D400306E000E316E1200D89039363A363B36D2
:1035E4003C363E063E50D8A4F7D739C02EF03AC038
:1035F4002FF03BC030F03CC031F012003034313495
:103604003B6E3B50D8A409D0000E2E6E000E2F6ED8
:10361400000E306E000E316E1200343435343A6EC2
:103624003A50D8A409D0000E2E6E000E2F6E000E54
:10363400306E000E316E1200308EFF0E2E16FF0E0D
:103644002F16FF0E3016000E3116348EFF0E321672
:10365400FF0E3316FF0E3416000E3516000E366EAE
:10366400000E376E000E386E000E396E7F0E3B5E14
:103674003A50A00F3B5E200E3A6ED890363637365D
:103684003836393632502E5C33502F583450305837
:1036940035503158D8A009D032502E5E33502F5AAD
:1036A4003450305A3550315A3680D8902E362F3611
:1036B400303631363A2EE1D73BAE16D03B50800A35
:1036C4009F0FD8B009D0000E2E6E000E2F6E000E84
:1036D400306E000E316E1200D890393238323732E3
:1036E40036323B3EF9D715D01F0E3B640FD0000E87
:1036F4002E6E000E2F6E000E306E000E316E120014
:10370400D89036363736383639363B063B50D8A44F
:10371400F7D736C02EF037C02FF038C030F039C09C
:1037240031F012000600FACF05F0FBCF06F0E9CF26
:1037340007F0EACF08F0E1CF09F0E2CF0AF0D9CFE1
:103744000BF0DACF0CF0F3CF0DF0F4CF0EF0F6CF90
:103754000FF0F7CF10F0F8CF11F0F5CF12F051C001
:1037640013F052C014F053C015F054C016F0F2A276
:1037740045D0CECF17F0CFCF18F04E50D8A43DD0BF
:103784004F50D8B41ED04AC001F04BC002F04CC018
:1037940003F04DC004F002C004F001C003F0026A5B
:1037A400016A175001240001F06F18500220F16FD4
:1037B400000E0320F26F000E0420F36F000E4F6E14
:1037C4001CD04AC001F04BC002F04CC003F04DC005
:1037D40004F002C004F001C003F0026A016A175049
:1037E4000124466E18500220476E000E0320486ED6
:1037F400000E0420496E010E4E6EF29216C054F073
:1038040015C053F014C052F013C051F012C0F5FFAC
:1038140011C0F8FF10C0F7FF0FC0F6FF0EC0F4FF91
:103824000DC0F3FF0CC0DAFF0BC0D9FF0AC0E2FFE2
:1038340009C0E1FF08C0EAFF07C0E9FF06C0FBFFBB
:1038440005C0FAFF51921100000E0001D215DA6F83
:10385400000ED315DB6F800ED415DC6F7F0ED515EB
:10386400DD6FDA51DB11DC11DD11D8A408D0000EB4
:10387400D26F000ED36F000ED46F000ED56F000E02
:10388400D615DA6F000ED715DB6F800ED815DC6FF6
:103894007F0ED915DD6FDA51DB11DC11DD11D8A4EF
:1038A40008D0000ED66F000ED76F000ED86F000E32
:1038B400D96FD5AF1DD0D2C0DAF0D3C0DBF0D4C0FD
:1038C400DCF0D5C0DDF0DA1FDB1FDC1FDD1FDA2BD7
:1038D400000EDB23DC23DD23000EDA25D26F000E7D
:1038E400DB21D36F000EDC21D46F800EDD21D56F78
:1038F400D9AF1DD0D6C0DAF0D7C0DBF0D8C0DCF029
:10390400D9C0DDF0DA1FDB1FDC1FDD1FDA2B000E50
:10391400DB23DC23DD23000EDA25D66F000EDB214A
:10392400D76F000EDC21D86F800EDD21D96F000E19
:10393400D21B000ED31B000ED41B800ED51B000E11
:10394400D61B000ED71B000ED81B800ED91BD651D8
:10395400D25DD751D359D851D459D951D559D8B0AA
:1039640002D0D8901200D8801200000E0001B66F69
:10397400000EB76F000EB86F000EB96F000EBA6F6D
:10398400000EBB6F000EBC6F000EBD6F4E50D8B45E
:103994001200F0C0AEF0F1C0AFF0F2C0B0F0F3C06E
:1039A400B1F0AE1FAF1FB01FB11FAE2B000EAF237F
:1039B400B023B1234650AE25B26F4750AF21B36F49
:1039C4004850B021B46F4950B121B56FB2C02EF048
:1039D400B3C02FF0B4C030F0B5C031F0000EBFEC6E
:1039E40019F02EC0BAF02FC0BBF030C0BCF031C00B
:1039F400BDF0BAC03CF0BBC03DF0BCC03EF0BDC0A1
:103A04003FF0BD0E406E370E416E860E426E340E90
:103A1400436ED3EC13F03CC0BAF03DC0BBF03EC0E3
:103A2400BCF03FC0BDF0000E0001916F000E926F1C
:103A3400800E936F3F0E946FBAC095F0BBC096F0A2
:103A4400BCC097F0BDC098F01BEC17F091C0B6F065
:103A540092C0B7F093C0B8F094C0B9F012EC21F062
:103A6400340E0001AE6FF10EE82EFED7AE2FFCD758
:103A740000D0B6C0AAF0B7C0ABF0B8C0ACF0B9C0C3
:103A8400ADF01200000E406E000E416E7F0E426ECD
:103A9400430E436EDEC0C2F0DFC0C3F0E0C0C4F02A
:103AA400E1C0C5F0E2C02EF0E3C02FF0E4C030F076
:103AB400E5C031F0ABEC20F02EC0BEF02FC0BFF05B
:103AC40030C0C0F031C0C1F07CEC15F0BEC03CF099
:103AD400BFC03DF0C0C03EF0C1C03FF0D3EC13F016
:103AE4003CC091F03DC092F03EC093F03FC094F0D2
:103AF400E6C0C2F0E7C0C3F0E8C0C4F0E9C0C5F056
:103B0400E2C02EF0E3C02FF0E4C030F0E5C031F0A5
:103B1400ABEC20F02EC0BEF02FC0BFF030C0C0F020
:103B240031C0C1F07CEC15F0BEC095F0BFC096F07A
:103B3400C0C097F0C1C098F01BEC17F091C0EAF038
:103B440092C0EBF093C0ECF094C0EDF0000E0001D5
:103B5400D26F000ED36F7F0ED46F430ED56FEAC0C1
:103B6400D6F0EBC0D7F0ECC0D8F0EDC0D9F026EC1D
:103B74001CF00001D8B009D0000EDE6F000EDF6F1C
:103B84007F0EE06F430EE16F1200EAC0DEF0EBC07F
:103B9400DFF0ECC0E0F0EDC0E1F0120000019C3574
:103BA4009D35456E4550D8A409D0000E9A6F000E7D
:103BB4009B6F000E9C6F000E9D6F12009AC09EF0CA
:103BC4009BC09FF09CC0A0F09DC0A1F0200E05D02A
:103BD400D890A133A0339F339E33E82EF9D79E515A
:103BE400446E9C8FFF0E9A17FF0E9B17FF0E9C17B7
:103BF400000E9D17960E455E45AE16D04550800AC0
:103C0400970FD8B009D0000E9A6F000E9B6F000E6C
:103C14009C6F000E9D6F1200D8909D339C339B3394
:103C24009A33453EF9D715D01F0E45640FD0000EC8
:103C34009A6F000E9B6F000E9C6F000E9D6F12001A
:103C4400D8909A379B379C379D3745064550D8A462
:103C5400F7D74450D8B408D09D1F9C1F9B1F9A6D62
:103C6400000E9B239C239D239AC09AF09BC09BF03B
:103C74009CC09CF09DC09DF01200939E939C939ACF
:103C84009398959A959C959E8C9C300EFAEC20F016
:103C94004E0E316EEB0EE82EFED7312EFCD700F01F
:103CA400300EFAEC20F0100E316E940EE82EFED792
:103CB400312EFCD700D0300EFAEC20F04E0E316ECF
:103CC400EB0EE82EFED7312EFCD700F0200EFAECD6
:103CD40020F0200E316E2A0EE82EFED7312EFCD7AE
:103CE400280EB5EC1FF0200E316E2A0EE82EFED7FA
:103CF400312EFCD70E0EB5EC1FF0200E316E2A0EBD
:103D0400E82EFED7312EFCD7010EB5EC1FF0200EA5
:103D1400316E2A0EE82EFED7312EFCD7060EB5ECF6
:103D24001FF0200E316E2A0EE82EFED7312EFCD75E
:103D3400800EB5EC1FF01200000E396E37AE06D0BF
:103D4400366C371ED8B0372A010E396E35AE06D020
:103D5400346C351ED8B0352A010E391A000E3B6E6C
:103D6400000E3A6E36503710D8B41CD0010E386E9F
:103D740004D0D89036363736382A37AEFAD7D890AA
:103D84003A363B363650345C37503558D8A005D0D7
:103D94003650345E3750355A3A80D89037323632FE
:103DA400382EEDD73950D8B404D03A6C3B1ED8B075
:103DB4003B2A3AC034F03BC035F01200000E366E98
:103DC400000E376E000E386E000E396E325033100E
:103DD40034103510D8B42AD0010E3A6E06D0D890DB
:103DE40032363336343635363A2A35AEF8D7D890AB
:103DF400363637363836393632502E5C33502F58F3
:103E04003450305835503158D8A009D032502E5E35
:103E140033502F5A3450305A3550315A3680D89056
:103E240035323432333232323A2EE1D736C02EF0C4
:103E340037C02FF038C030F039C031F01200000E16
:103E4400336E2FAE06D02E6C2F1ED8B02F2A010E43
:103E5400336E31AE04D0306C311ED8B0312A3050BC
:103E64003110D8B418D0010E326E04D0D890303648
:103E74003136322A31AEFAD730502E5C31502F58B9
:103E8400D8A004D030502E5E31502F5AD890313201
:103E94003032322EF1D73350D8B404D02E6C2F1ECA
:103EA400D8B02F2A2EC02EF02FC02FF0120032507F
:103EB400331034103510D8B424D0010E366E06D029
:103EC400D8903236333634363536362A35AEF8D7CE
:103ED40032502E5C33502F583450305835503158AE
:103EE400D8A008D032502E5E33502F5A3450305A56
:103EF4003550315AD8903532343233323232362E4C
:103F0400E7D72EC02EF02FC02FF030C030F031C0D4
:103F140031F0120014D032C0F6FF33C0F7FFF86A54
:103F2400050EF76403D00800F55005D0F6CFE9FF7D
:103F3400F7CFEAFFEF5040EC20F0324A332A32C088
:103F4400F6FF33C0F7FFF86A050EF76403D00800E4
:103F5400F55005D0F6CFE9FFF7CFEAFFEF5000099F
:103F6400D8B41200D8D7306E000E506E8C9A0F0E53
:103F740050163050F00B50125050C2EC20F007ECA9
:103F840021F0150E2F6EC60EE82EFED72F2EFCD76D
:103F940000D00F0E501630C02FF00F0E2F162F38F2
:103FA400F00B50125050C2EC20F007EC21F012003C
:103FB400000E0001D61B000ED71B000ED81B800E6E
:103FC400D91BD2C0BEF0D3C0BFF0D4C0C0F0D5C09E
:103FD400C1F0D6C0C2F0D7C0C3F0D8C0C4F0D9C0B5
:103FE400C5F07CEC15F0BEC0D2F0BFC0D3F0C0C0A9
:103FF400D4F0C1C0D5F01200306E8C8A0F0E50166A
:104004003050F00B50125050C2EC20F007EC21F06D
:10401400150E2F6EC60EE82EFED72F2EFCD700D01D
:104024000F0E501630C02FF00F0E2F162F38F00B36
:1040340050125050C2EC20F007EC21F012002E6E0A
:104044000FD08C948C9612008C948C8612008C84E5
:104054008C9612008C848C8612008C848C961200B0
:104064002E50000AD8B4EDD7010AD8B4EDD7030A0C
:10407400D8B4EDD7010AD8B4EDD7EFD7316E10D04C
:10408400010EB5EC1FF01200030EB5EC1FF0120088
:10409400100EB5EC1FF012003150FEEC1FF01200B0
:1040A4003150080AD8B4F4D7020AD8B4EDD7060AB6
:1040B400D8B4E6D7F1D72E6E0CD08C908C92120027
:1040C4008C908C8212008C808C9212008C808C825A
:1040D40012002E50000AD8B4F9D7010AD8B4F3D785
:1040E400030AD8B4EDD7010AD8A41200E6D7336E78
:1040F400000E346E05D0C00E01D0800E346E08D090
:104104003150010AD8B4F9D7030AD8B4F4D7F5D793
:1041140034503324326E3204346E3450B5EC1FF014
:10412400120001EE75F0080EEE6AE806FDE10001EA
:10413400F36BF26BF16BF06B00EE46F00B0EEE6A74
:10414400E806FDE151905192000EF86E000140EF37
:104154000EF02E502F1030103110D8B408D0000EAD
:104164002E1A000E2F1A000E301A800E311A2EC08D
:104174002EF02FC02FF030C030F031C031F01200DB
:104184002E6E2EA802D08A8801D08A982EAA02D038
:104194008A8A01D08A9A2EAC02D08A8C01D08A9C59
:1041A4002EAE02D08A8E12008A9E12002E50300249
:1041B400F3CF32F0F4CF33F02E503102F3503326E4
:1041C4002F503002F350332632C02EF033C02FF07C
:1041D4001200306E000E2F6E3A0E306005D02F0E96
:1041E400306402D0010E2F6E2FC02EF02E3012003C
:1041F4002F6E8C9A0F0E50162F50F00B50125050F9
:10420400C2EC20F007EC21F012008C8E100E2E6E02
:10421400940EE82EFED72E2EFCD700D08C9E1200D2
:0E422400010E4F6E000E4E6EF288F18C1200ED
:020000040020DA
:08000000FFFFFFFFFFFFFFFF00
:020000040030CA
:0E000000FF02181EFF8081FF0FC00FE00F40AF
:00000001FF
