:040000006CEF00F0B1
:06000800518203ED15F02A
:100018005180D8CF19F0E8CF1AF0E0CF1BF0FACF13
:100028001CF0FBCF1DF0E9CF1EF0EACF1FF0E1CFA7
:1000380020F0E2CF21F0D9CF22F0DACF23F0F3CFAE
:1000480024F0F4CF25F0F6CF26F0F7CF27F0F8CF3D
:1000580028F0F5CF29F051C02AF052C02BF053C038
:100068002CF054C02DF09EA007D0010E4A26000E99
:100078004B224C224D229E902DC054F02CC053F0A0
:100088002BC052F02AC051F029C0F5FF28C0F8FF54
:1000980027C0F7FF26C0F6FF25C0F4FF24C0F3FFF2
:1000A80023C0DAFF22C0D9FF21C0E2FF20C0E1FF50
:1000B8001FC0EAFF1EC0E9FF1DC0FBFF1CC0FAFFFE
:1000C8001BC0E0FF1AC0E8FF19C0D8FF519010000C
:0400D800DBEF19F051
:10060000000000803F000020410000C84200007A46
:100610004400401C460050C347002474498096188B
:100620004B20BCBE4C286B6E4EF9021550EC78ADD9
:1006300060CAF249710000803FCDCCCC3D0AD7237F
:100640003C6F12833A17B7D138ACC52737BD378610
:100650003595BFD63377CC2B325F708930FFE6DB20
:100660002E08E53C1E6042A20D010000000A0000B9
:100670000064000000E803000010270000A08601CD
:100680000040420F008096980000E1F50500CA9AEC
:100690003B4465746563746F7220646520636F6C9E
:1006A0006F720025352E336600413D2000423D200B
:1006B00000523D2000563D200000DA0E0101046F7B
:1006C000000E056F0AEF08F0250E1A19D8B409D0EC
:1006D000D6C0D9FFD7C0DAFF1AC1DFFF000108EF8B
:1006E00008F0000E01010D6F000E0C6F000E0B6F75
:1006F000000E0A6FD8C0F6FFD9C0F7FF0800F5500A
:1007000034EC1AF0D8A038D0000E01010D6F000EA5
:100710000C6F0CC12EF00DC12FF0000E316E0A0EC1
:10072000306E21EC1AF02EC00CF12FC00DF1D00E5E
:100730000001DE6FFF0EDF6FD8C0F6FFD9C0F7FFF4
:100740000800F550E06FE16BDE51E027DF51E12357
:10075000E05101010C270001E15101010D230001CD
:10076000D84BD92BD8C0F6FFD9C0F7FF0800F550F9
:1007700034EC1AF0D8B0CDD7D8C0F6FFD9C0F7FF07
:100780000800F5502E0AD8A433D001010B8D0001CA
:10079000D84BD92B000E0101196F000E186F1DD018
:1007A00018C12EF019C12FF0000E316E0A0E306EF6
:1007B00021EC1AF0D8C0F6FFD9C0F7FF0800F550B9
:1007C0002E26000E2F22D00E2E240101186FFF0EB0
:1007D0002F20196F0001D84BD92BD8C0F6FFD9C0F4
:1007E000F7FF0800F55034EC1AF0D8A00AD0D8D79B
:1007F000000E0101196F000E186F0B8902D00B85D6
:1008000014D0D8C0F6FFD9C0F7FF0001D84BD92BC0
:100810000800F5CF1AF101011A51000AD8B419EFF6
:1008200008F0660AD8B4EBD7F5D3070E0B15D8B489
:1008300049D30BA904D0000E196F060E186F04C11E
:10084000D9FF05C1DAFFDECF14F1DECF15F1DECF1F
:1008500016F1DECF17F1040E0427000E052317AFA3
:1008600015D014C12EF015C12FF016C130F017C1EC
:1008700031F0F4EC19F02EC014F12FC015F130C096
:1008800016F131C017F1030E01010A13000E136FA8
:10089000000E126F1451151116111711D8B482D011
:1008A00016351735820F126F136BFF0E13231207C5
:1008B000D8A0130712C12EF013C12FF0000E316E15
:1008C000030E306E21EC1AF02EC012F12FC013F17E
:1008D00012C134F013C135F0000E376E0A0E366EB9
:1008E000E6EC17F034C012F135C013F1010113AF7B
:1008F00003D01207D8A01307125100081AEC0BF00E
:100900008DC00EF18EC00FF18FC010F190C011F1AB
:100910000EC13CF00FC13DF010C13EF011C13FF0DF
:1009200014C140F015C141F016C142F017C143F0A7
:1009300042EC0DF03CC00EF13DC00FF13EC010F195
:100940003FC011F10EC12EF00FC12FF010C130F0D9
:1009500011C131F0000E326E000E336E800E346E17
:100960003F0E356E96EC15F0D8B005D00101120798
:10097000D8A0130717D00EC12EF00FC12FF010C151
:1009800030F011C131F0000E326E000E336E200EC9
:10099000346E410E356E96EC15F0D8A003D00101EF
:1009A000124B132B010119BF06D0195121E10D0E75
:1009B000185DD8B01DD014C1BAF015C1BBF016C176
:1009C000BCF017C1BDF01851E5EC11F08DC0BEF0C0
:1009D0008EC0BFF08FC0C0F090C0C1F0EBEC0EF045
:1009E000BAC014F1BBC015F1BCC016F1BDC017F1FF
:1009F000010113BF06D0135124E10A0E125DD8B0D5
:100A000020D01451151116111711D8B465D014C186
:100A100096F015C197F016C198F017C199F0B3EC94
:100A200016F000019651971198119911D8A454D03D
:100A3000010113BF51D0135104E1020E125DD8A081
:100A40004BD00EC12EF00FC12FF010C130F011C1EC
:100A500031F05F0E326E700E336E890E346E400EC2
:100A6000356E96EC15F0D8B003D00101F70E02D028
:100A70000101F80E1227FF0E132312511AEC0BF08E
:100A80008DC00EF18EC00FF18FC010F190C011F12A
:100A900014C12EF015C12FF016C130F017C131F07E
:100AA0000EC132F00FC133F010C134F011C135F076
:100AB0006FEC14F02EC006F12FC007F130C008F122
:100AC00031C009F1000E0101146F000E156F000E08
:100AD000166F000E176F3CD014C196F015C197F039
:100AE00016C198F017C199F0B3EC16F096C006F154
:100AF00097C007F198C008F199C009F114C1CEF070
:100B000015C1CFF016C1D0F017C1D1F006C12EF03B
:100B100007C12FF008C130F009C131F0000E2EECF2
:100B200013F02EC0D2F02FC0D3F030C0D4F031C0BB
:100B3000D5F022EC19F0CEC014F1CFC015F1D0C021
:100B400016F1D1C017F1000E0101136F000E126FE4
:100B5000010E1A6F0A0E1A19D8B418D01A51040DC2
:100B6000690EF324F66E060EF420F76E0900F550B8
:100B7000065D0900F55007590900F55008590900AC
:100B8000F5500959D8A002D01A2BE4D71AC1DEF0CB
:100B90000001DF6BDEBFDF07010118510001DE2716
:100BA000010119510001DF23010112510001DE276B
:100BB000010113510001DF23DE5101010C5F00012F
:100BC000DF5101010D5B18511911D8B403D00C0786
:100BD000D8A00D07030E0A150001DE6F000E0101FB
:100BE0000B150001DF6FDE51DF11D8B40ED009D034
:100BF000D6C0D9FFD7C0DAFF200EDF6E0001D64B7A
:100C0000D72B01010C07D8A00D0701010DBF05D09E
:100C10000D51EEE10C05D8B0EBD7030E0A1500011B
:100C2000DE6F000E01010B150001DF6FDE51DF11D9
:100C3000D8B453D0D6C0D9FFD7C0DAFF2D0EDF6E9F
:100C40004AD006C12EF007C12FF008C130F009C10B
:100C500031F001011A51040D690EF324F66E060EEF
:100C6000F420F76E0900F5CF32F00900F5CF33F02C
:100C70000900F5CF34F00A00F5CF35F028EC18F074
:100C80002EC00EF12FC00FF130C010F131C011F1A4
:100C90000EC12EF00FC12FF010C130F011C131F094
:100CA0000A0E326E000E336E000E346E000E356E7C
:100CB000A1EC18F02EC00EF12FC00FF130C010F1D2
:100CC00031C011F101010E51300FD6C0D9FFD7C08C
:100CD000DAFFDF6E0001D64BD72B01011A071A2964
:100CE000D8B40ED0AED7D6C0D9FFD7C0DAFF300EF9
:100CF000DF6E0001D64BD72B01011207D8A01307D6
:100D000013BF05D01351EFE11205D8B0ECD719BFCE
:100D100009D0195104E1090E185DD8A003D0080EBE
:100D20001A6F02D018C11AF11A51185F000E1ABFBB
:100D3000FF0E195B1A51D8B409D0D6C0D9FFD7C05D
:100D4000DAFF2E0EDF6E0001D64BD72B01011A51B0
:100D50001AEC0BF08DC000F18EC001F18FC002F1D2
:100D600090C003F114C140F015C141F016C142F02A
:100D700017C143F000C13CF001C13DF002C13EF09B
:100D800003C13FF042EC0DF03CC096F03DC097F03F
:100D90003EC098F03FC099F0B3EC16F096C006F153
:100DA00097C007F198C008F199C009F173D006C146
:100DB0002EF007C12FF008C130F009C131F0010158
:100DC0001A51040D690EF324F66E060EF420F76E28
:100DD0000900F5CF32F00900F5CF33F00900F5CF67
:100DE00034F00A00F5CF35F028EC18F02EC00EF1E3
:100DF0002FC00FF130C010F131C011F10EC12EF033
:100E00000FC12FF010C130F011C131F00A0E326E57
:100E1000000E336E000E346E000E356EA1EC18F02D
:100E20002EC00EF12FC00FF130C010F131C011F102
:100E300001010E51300FD6C0D9FFD7C0DAFFDF6EE7
:100E40000001D64BD72B06C12EF007C12FF008C1E9
:100E500030F009C131F001011A51040D690EF3247B
:100E6000F66E060EF420F76E0900F5CF32F0090099
:100E7000F5CF33F00900F5CF34F00A00F5CF35F0A7
:100E8000A1EC18F02EC006F12FC007F130C008F118
:100E900031C009F101011A071A29D8B40ED087D739
:100EA000D6C0D9FFD7C0DAFF300EDF6E0001D64BB7
:100EB000D72B01011807D8A0190718511911D8B458
:100EC000A9D0EED718511911D8A408D0065107118E
:100ED00008110911D8A402D0184B192B800E1ABF83
:100EE0007F0E0001DE6F010118511A5D1951800A51
:100EF0000001DE59D8B003D018C11AF115D0010194
:100F00001951800A0001DE6F01011A51185D800E2F
:100F10001ABF7F0E0001DE59D8B006D001011A5168
:100F2000186F196B18BF190701010C510D11D8B4B6
:100F300011D0030E0A150001DE6F000E01010B1522
:100F40000001DF6FDE51DF11D8B404D001010C07BE
:100F5000D8A00D0701010BAD18D00C51185D195127
:100F6000800A0001DE6F01010D51800A0001DE5987
:100F7000D8B006D0010118510C5F19510D5B05D096
:100F8000000E01010D6F000E0C6F800E1ABF7F0E58
:100F90000001DE6F01010C511A5D0D51800A000144
:100FA000DE59D8B008D001011A510C5F000E1ABFEB
:100FB000FF0E0D5B05D0000E01010D6F000E0C6FD2
:100FC0000C510D11D8B411D0D6C0D9FFD7C0DAFF5B
:100FD000200EDF6E0001D64BD72B01010C07D8A0E5
:100FE0000D070C510D11D8A4EFD7030E0A150001FF
:100FF000DE6F000E01010B150001DF6FDE51DF1106
:10100000D8B408D0D6C0D9FFD7C0DAFF2D0EDF6E16
:10101000D64BD72BD8C0F6FFD9C0F7FF0001D84B6D
:10102000D92B0800F5CF1AF101011A51D8A464EFA9
:1010300003F0D6C0D9FFD7C0DAFF000EDF6E120072
:10104000000E01012C6F000E2D6F000E2E6F000E92
:101050002F6F9596959495929590959887EC17F0AB
:10106000910E326E060E336ED4EC18F0CD8ECD9A02
:10107000CD98CD92CD809F909D805BEC1AF0D08E64
:10108000F28EF28C020EA5EC19F0100E8C1A020EE4
:1010900069EC19F0000E01012B6F1D0E2B6501D0BC
:1010A00028D0340E0001E26FF10EE82EFED7E22FB9
:1010B000FCD700D02CC1BAF02DC1BBF02EC1BCF0C2
:1010C0002FC1BDF026EC16F0A6C0BEF0A7C0BFF041
:1010D000A8C0C0F0A9C0C1F0EBEC0EF0BAC02CF172
:1010E000BBC02DF1BCC02EF1BDC02FF101012B2BD7
:1010F000D4D72CC18DF02DC18EF02EC18FF02FC111
:1011000090F0000E0001916F000E926FF00E936F41
:10111000410E946F8AEC10F08DC02CF18EC02DF131
:101120008FC02EF190C02FF12CC127F12DC128F1D5
:101130002EC129F12FC12AF127C1CEF028C1CFF04D
:1011400029C1D0F02AC1D1F0000E0001D26F600E8B
:10115000D36FEB0ED46F440ED56F000ED66F340EE6
:10116000D76F000ED86F460ED96F22EC17F0CEC0A5
:101170002CF1CFC02DF1D0C02EF1D1C02FF1300E07
:101180000001D66F010ED76FA30ED86F060ED96F70
:101190002CC1DAF02DC1DBF02EC1DCF02FC1DDF067
:1011A0005DEC03F0020E316E010EC1EC19F0AD0ED4
:1011B000326E060E336ED4EC18F0300E326E010E25
:1011C000336ED4EC18F0000E01012C6F000E2D6F61
:1011D000000E2E6F000E2F6F1F0E0001E36F710EB9
:1011E000E26F1E0EE82EFED7E22FFCD7E32FFAD7D0
:1011F00000F0100E8C1A000E69EC19F0000E0101BF
:101200002B6F1D0E2B6501D028D0340E0001E26F2C
:10121000F10EE82EFED7E22FFCD700D02CC1BAF099
:101220002DC1BBF02EC1BCF02FC1BDF026EC16F0D5
:10123000A6C0BEF0A7C0BFF0A8C0C0F0A9C0C1F052
:10124000EBEC0EF0BAC02CF1BBC02DF1BCC02EF1FE
:10125000BDC02FF101012B2BD4D72CC18DF02DC196
:101260008EF02EC18FF02FC190F0000E0001916F13
:10127000000E926FF00E936F410E946F8AEC10F097
:101280008DC02CF18EC02DF18FC02EF190C02FF1AA
:101290002CC11BF12DC11CF12EC11DF12FC11EF15E
:1012A0001BC1CEF01CC1CFF01DC1D0F01EC1D1F0CA
:1012B0009A0E0001D26FD90ED36F390ED46F440E3F
:1012C000D56F330ED66F7B0ED76F380ED86F450EA5
:1012D000D96F22EC17F0CEC02CF1CFC02DF1D0C0C9
:1012E0002EF1D1C02FF1300E0001D66F010ED76F55
:1012F000A30ED86F060ED96F2CC1DAF02DC1DBF02A
:101300002EC1DCF02FC1DDF05DEC03F0020E316E7A
:10131000010EC1EC19F0B10E326E060E336ED4EC34
:1013200018F0300E326E010E336ED4EC18F0000E51
:1013300001012C6F000E2D6F000E2E6F000E2F6F0F
:101340001F0E0001E36F710EE26F1E0EE82EFED736
:10135000E22FFCD7E32FFAD700F0100E8C1A030E01
:1013600069EC19F0000E01012B6F1D0E2B6501D0E9
:1013700028D0340E0001E26FF10EE82EFED7E22FE6
:10138000FCD700D02CC1BAF02DC1BBF02EC1BCF0EF
:101390002FC1BDF026EC16F0A6C0BEF0A7C0BFF06E
:1013A000A8C0C0F0A9C0C1F0EBEC0EF0BAC02CF19F
:1013B000BBC02DF1BCC02EF1BDC02FF101012B2B04
:1013C000D4D72CC18DF02DC18EF02EC18FF02FC13E
:1013D00090F0000E0001916F000E926FF00E936F6F
:1013E000410E946F8AEC10F08DC02CF18EC02DF15F
:1013F0008FC02EF190C02FF12CC11FF12DC120F113
:101400002EC121F12FC122F11FC1CEF020C1CFF09A
:1014100021C1D0F022C1D1F09A0E0001D26FD90EB5
:10142000D36FFC0ED46F430ED56F000ED66FA00E97
:10143000D76F180ED86F450ED96F22EC17F0CEC0BB
:101440002CF1CFC02DF1D0C02EF1D1C02FF1300E34
:101450000001D66F010ED76FA30ED86F060ED96F9D
:101460002CC1DAF02DC1DBF02EC1DCF02FC1DDF094
:101470005DEC03F0020E316E010EC1EC19F0B50EF9
:10148000326E060E336ED4EC18F0300E326E010E52
:10149000336ED4EC18F0000E01012C6F000E2D6F8E
:1014A000000E2E6F000E2F6F1F0E0001E36F710EE6
:1014B000E26F1E0EE82EFED7E22FFCD7E32FFAD7FD
:1014C00000F0100E8C1A010E69EC19F0000E0101EB
:1014D0002B6F1D0E2B6501D01FD02CC1BAF02DC172
:1014E000BBF02EC1BCF02FC1BDF026EC16F0A6C09B
:1014F000BEF0A7C0BFF0A8C0C0F0A9C0C1F0EBEC1F
:101500000EF0BAC02CF1BBC02DF1BCC02EF1BDC095
:101510002FF101012B2BDDD72CC18DF02DC18EF0C9
:101520002EC18FF02FC190F0000E0001916F000EC0
:10153000926FF00E936F410E946F8AEC10F08DC095
:101540002CF18EC02DF18FC02EF190C02FF12CC147
:1015500023F12DC124F12EC125F12FC126F123C184
:10156000CEF024C1CFF025C1D0F026C1D1F0000EBD
:101570000001D26F200ED36F130ED46F440ED56FBF
:10158000000ED66F200ED76F470ED86F450ED96F5D
:1015900022EC17F0CEC02CF1CFC02DF1D0C02EF12F
:1015A000D1C02FF1300E0001D66F010ED76FA30E00
:1015B000D86F060ED96F2CC1DAF02DC1DBF02EC129
:1015C000DCF02FC1DDF05DEC03F0020E316E010E98
:1015D000C1EC19F0A90E326E060E336ED4EC18F081
:1015E000300E326E010E336ED4EC18F0000E010195
:1015F0002C6F000E2D6F000E2E6F000E2F6F1F0E22
:101600000001E36F710EE26F1E0EE82EFED7E22F8F
:10161000FCD7E32FFAD700F01F0E0001E36F710E25
:10162000E26F1E0EE82EFED7E22FFCD7E32FFAD78B
:1016300000F02BD50001956F000195AF12D1956D8B
:101640009551800A120FD8A09AD0000E376E0A0E5C
:10165000366E000E316E640E306E95512E6E2F6A0E
:101660002EBE2F0669EC18F02EC034F02FC035F0D6
:10167000E6EC17F0D89034363536D8903436353617
:10168000240E3426000E3522350E3424F66E060E56
:101690003520F76E0900F5CF40F00900F5CF41F095
:1016A0000900F5CF42F00A00F5CF43F0000E376E87
:1016B000640E366E00019551346E356A34BE3506BF
:1016C000E6EC17F0D89034363536D89034363536C7
:1016D000480E3426000E3522350E3424F66E060EE2
:1016E0003520F76E0900F5CF3CF00900F5CF3DF04D
:1016F0000900F5CF3EF00A00F5CF3FF042EC0DF0C7
:101700003CC091F03DC092F03EC093F03FC094F0D9
:1017100091C03CF092C03DF093C03EF094C03FF0C9
:10172000000E316E0A0E306E000195512E6E2F6A3A
:101730002EBE2F0669EC18F0D8902E362F36D89092
:101740002E362F36350E2E24F66E060E2F20F76E0F
:101750000900F5CF40F00900F5CF41F00900F5CFC1
:1017600042F00A00F5CF43F042EC0DF03CC08DF0A2
:101770003DC08EF03EC08FF03FC090F012000001DF
:101780009551800A750FD8A056D0000E376E0A0EFC
:10179000366E9551346E356A34BE3506E6EC17F078
:1017A000D89034363536D89034363536240E342633
:1017B000000E3522350E3424F66E060E3520F76EF7
:1017C0000900F5CF3CF00900F5CF3DF00900F5CF59
:1017D0003EF00A00F5CF3FF0000E316E0A0E306E7B
:1017E000000195512E6E2F6A2EBE2F0669EC18F05F
:1017F000D8902E362F36D8902E362F36350E2E24F2
:10180000F66E060E2F20F76E0900F5CF40F00900A6
:10181000F5CF41F00900F5CF42F00A00F5CF43F0D3
:1018200042EC0DF03CC08DF03DC08EF03EC08FF01C
:101830003FC090F0120000019551040D350EF324C5
:10184000F66E060EF420F76E0900F5CF8DF0090054
:10185000F5CF8EF00900F5CF8FF00A00F5CF90F0AC
:1018600012009551800A120FD8A09AD0000E376E40
:101870000A0E366E000E316E640E306E95512E6E6D
:101880002F6A2EBE2F0669EC18F02EC034F02FC040
:1018900035F0E6EC17F0D89034363536D89034363B
:1018A0003536240E3426000E3522010E3424F66E11
:1018B000060E3520F76E0900F5CF40F00900F5CF90
:1018C00041F00900F5CF42F00A00F5CF43F0000ED9
:1018D000376E640E366E00019551346E356A34BE33
:1018E0003506E6EC17F0D89034363536D8903436D5
:1018F0003536480E3426000E3522010E3424F66E9D
:10190000060E3520F76E0900F5CF3CF00900F5CF43
:101910003DF00900F5CF3EF00A00F5CF3FF042EC74
:101920000DF03CC091F03DC092F03EC093F03FC03E
:1019300094F091C03CF092C03DF093C03EF094C052
:101940003FF0000E316E0A0E306E000195512E6E82
:101950002F6A2EBE2F0669EC18F0D8902E362F363F
:10196000D8902E362F36010E2E24F66E060E2F201E
:10197000F76E0900F5CF40F00900F5CF41F00900FE
:10198000F5CF42F00A00F5CF43F042EC0DF03CC039
:101990008DF03DC08EF03EC08FF03FC090F0120041
:1019A00000019551800A750FD8A056D0000E376EF1
:1019B0000A0E366E9551346E356A34BE3506E6EC45
:1019C00017F0D89034363536D89034363536240E64
:1019D0003426000E3522010E3424F66E060E352014
:1019E000F76E0900F5CF3CF00900F5CF3DF0090096
:1019F000F5CF3EF00A00F5CF3FF0000E316E0A0E33
:101A0000306E000195512E6E2F6A2EBE2F0669ECA6
:101A100018F0D8902E362F36D8902E362F36010E4D
:101A20002E24F66E060E2F20F76E0900F5CF40F03B
:101A30000900F5CF41F00900F5CF42F00A00F5CFDB
:101A400043F042EC0DF03CC08DF03DC08EF03EC046
:101A50008FF03FC090F0120000019551040D010E6F
:101A6000F324F66E060EF420F76E0900F5CF8DF024
:101A70000900F5CF8EF00900F5CF8FF00A00F5CF01
:101A800090F012003F50800B0001806F3F503F24C8
:101A9000866F3EBE86818651D8B40DD08629D8A4E3
:101AA00008D0000E3C6E000E3D6E000E3E6E000E25
:101AB0003F6E3E8E08D0000E3C6E000E3D6E000E56
:101AC0003E6E000E3F6E4350800B801B43504324FC
:101AD000816F42BE81818151D8B40DD08129D8A4B3
:101AE00008D0000E406E000E416E000E426E000ED9
:101AF000436E428E08D0000E406E000E416E000E06
:101B0000426E000E436E8151D8B403D08651D8A4E2
:101B100009D0000E3C6E000E3D6E000E3E6E000EB3
:101B20003F6E120042503C02F3CF8BF0F4CF8CF0AA
:101B30008B51826F836B846B856B8C51876F886B45
:101B4000896B8A6B41503D02F3CF8BF0F4CF8CF060
:101B50008B518227000E8323842385238C51872772
:101B6000000E882389238A2340503E02F3CF8BF056
:101B7000F4CF8CF08B518227000E8323842385239E
:101B80008C518727000E882389238A2384C085F0FF
:101B900083C084F082C083F0826B40503D02F3CF5B
:101BA0008BF0F4CF8CF08B5182278C518323000E65
:101BB0008423000E852341503C02F3CF8BF0F4CFF9
:101BC0008CF08B5182278C518323000E8423000ECE
:101BD000852384C085F083C084F082C083F0826B4B
:101BE00040503C02F3CF8BF0F4CF8CF08B51822726
:101BF0008C518323000E8423000E852342503D0226
:101C0000F3CF8BF0F4CF8CF08B5187278C51882346
:101C1000000E8923000E8A2341503E02F3CF8BF041
:101C2000F4CF8CF08B5187278C518823000E8923A9
:101C3000000E8A2342503E02F3CF8BF0F4CF8CF09B
:101C40008B51446E8C51456E466A476A46C047F0D8
:101C500045C046F044C045F0446A4450872745508B
:101C600088234650892347508A2382C044F083C08A
:101C700045F084C046F085C047F0190E05D0D890D5
:101C80004732463245324432E82EF9D7445087274E
:101C9000455088234650892347508A2384C085F0C5
:101CA00083C084F082C083F0826B815186C044F08F
:101CB000456A4426000E4522820E44248B6FFF0E97
:101CC00045208C6F0FD0D8908737883789378A376F
:101CD00085BF8781D89082378337843785378B07D4
:101CE000D8A08C0789AFEFD7000E816F85AF16D0D3
:101CF000FF0E8215446EFF0E8315456EFF0E841590
:101D0000466E7F0E8515476E4450451046104710AD
:101D1000D8A402D087A102D0010E816F8151D8B41E
:101D20001FD0010E8727000E882389238A238AA1CA
:101D300017D087C044F088C045F089C046F08AC0FB
:101D400047F04734473246324532443244C087F088
:101D500045C088F046C089F047C08AF08B4B8C2B79
:101D60008CBF0DD08C5103E18B29D8A008D0000E78
:101D7000876F000E886F800E896F7F0E20D08CBF1A
:101D800005D08C510EE18B05D8B00BD0000E876FBB
:101D9000000E886F000E896F000E8A6F000E806F34
:101DA0000FD08BC086F0FF0E8717FF0E88177F0EAF
:101DB0008917000E8A1786B1898FD89086318A6F6D
:101DC00080518A1387C03CF088C03DF089C03EF046
:101DD0008AC03FF012000001BD51800BCA6FBD5197
:101DE000BD25CC6FBCBFCC81CC51D8B40DD0CC2993
:101DF000D8A408D0000EBA6F000EBB6F000EBC6FE7
:101E0000000EBD6FBC8F06D0000EBA6F000EBB6F08
:101E1000000EBC6F000EBD6FC151800BCB6FCA515D
:101E2000CB19D8A4CA8DC151C125CB6FC0BFCB81FE
:101E3000CB51D8B40DD0CB29D8A408D0000EBE6F9A
:101E4000000EBF6F000EC06F000EC16FC08F06D0B6
:101E5000000EBE6F000EBF6F000EC06F000EC16F90
:101E6000CC51CB5DD8B022D0CAAD02D0800ECA1BF7
:101E7000CCC0CDF0CBC0CCF0CDC0CBF0BAC0CDF053
:101E8000BEC0BAF0CDC0BEF0BBC0CDF0BFC0BBF08D
:101E9000CDC0BFF0BCC0CDF0C0C0BCF0CDC0C0F064
:101EA000BDC0CDF0C1C0BDF0CDC0C1F0000ECD6F42
:101EB000CC51C26FC36BC21FC31FC24BC32BCB51CC
:101EC000C46FC56BC251C427C351C523C5BF2CD035
:101ED000C55104E11A0EC45DD8A026D0BA51BB1179
:101EE000BC11BD11D8B402D0010E01D0000ECD6FCF
:101EF000000EBA6F000EBB6F000EBC6F000EBD6F00
:101F0000CBC0CCF015D0CDA105D0D890CD310109F2
:101F1000CD6F02D0D890CD33BAB1CD8FBD35BD33A2
:101F2000BC33BB33BA33CC2BCB51CC5DD8A0EBD771
:101F3000CABD29D0CC51D8A409D0000EBA6F000E6A
:101F4000BB6F000EBC6F000EBD6F1200BE51BA27F2
:101F5000BF51BB23C051BC23C151BD23BDA183D000
:101F6000CDA106D0D890CD33CD510109CD6F02D08F
:101F7000D890CD33BAB1CD8FBD35BD33BC33BB3373
:101F8000BA33CC2B70D0BE51BA5DBF51BB59C051D2
:101F9000BC59BD51800AC26FC151800AC259D8B024
:101FA00036D0BAC0C2F0BBC0C3F0BCC0C4F0BDC024
:101FB000C5F0C21FC31FC41FC51FC22B000EC32301
:101FC000C423C523BE51C225C66FBF51C321C76FED
:101FD000C051C421C86FC151C521C96FFF0EC625AC
:101FE000BA6FFF0EC721BB6FFF0EC821BC6FFF0E7B
:101FF000C921BD6F800ECA1BCD6DCD51D8A40FD0A5
:10200000010EBA27000EBB23BC23BD2308D0BE514E
:10201000BA5FBF51BB5BC051BC5BC151BD5BBA5124
:10202000BB11BC11BD11D8A41CD0CD51D8A419D05E
:10203000000EBA6F000EBB6F000EBC6F000EBD6FBE
:102040001200D890BA37BB37BC37BD37CDBFBA8185
:10205000CDA102D0D88001D0D890CD37CC51D8A412
:10206000CC07BCAFEED7000ECB6FCDAF0AD0CDC042
:10207000C2F07F0EC217D8A402D0BAA102D0010EBE
:10208000CB6FCB51D8B420D0010EBA27000EBB23A2
:10209000BC23BD23BDA118D0BAC0C2F0BBC0C3F0E1
:1020A000BCC0C4F0BDC0C5F0C535C533C433C333EF
:1020B000C233C2C0BAF0C3C0BBF0C4C0BCF0C5C01C
:1020C000BDF0CC29D8A4CC2BCC29D8B403D0CC518A
:1020D000D8A40DD0000EBA6F000EBB6F000EBC6FFF
:1020E000000EBD6FCC51D8A402D0000ECA6FCCA197
:1020F00002D0BC8F01D0BC9FD890CC31BD6FCABF7D
:10210000BD8FBAC0BAF0BBC0BBF0BCC0BCF0BDC094
:10211000BDF0120000019051800B996F90519025F5
:10212000A46F8FBFA481A451D8B40DD0A429D8A482
:1021300008D0000E8D6F000E8E6F000E8F6F000E98
:10214000906F8F8F06D0000E8D6F000E8E6F000E79
:102150008F6F000E906F9451800B991B94519425B2
:10216000A56F93BFA581A551D8B40DD0A529D8A43A
:1021700008D0000E916F000E926F000E936F000E4C
:10218000946F938F06D0000E916F000E926F000E29
:10219000936F000E946F9151921193119411D8A4E2
:1021A00015D0000E8D6F000E8E6F000E8F6F000E1B
:1021B000906F800E8F137F0E90138DC08DF08EC0A8
:1021C0008EF08FC08FF090C090F01200A451D8A470
:1021D00011D0000E8D6F000E8E6F000E8F6F000EEF
:1021E000906F8DC08DF08EC08EF08FC08FF090C03C
:1021F00090F01200A551956F966B951F961F954B09
:10220000962BA451976F986B9551972796519823C9
:102210007F0E97259E6F000E98219F6F8DC09AF0BC
:102220008EC09BF08FC09CF090C09DF0000E8D6F13
:10223000000E8E6F000E8F6F000E906F000EA06F5D
:10224000000EA16F000EA26F000EA36F000EA56F0F
:1022500028D0A551D8B411D0D8909A379B379C3745
:102260009D37D8908D378E378F379037A3BF8D81AC
:10227000D890A037A137A237A33791519A5D9251D8
:102280009B5993519C5994519D59D8A009D0A38D25
:1022900091519A5F92519B5B93519C5B94519D5BD2
:1022A000A52B190EA565D5D79A519B119C119D118F
:1022B000D8B411D0A0810FD0D8908D378E378F37FA
:1022C0009037A3BF8D81D890A037A137A237A3370D
:1022D0009E07D8A09F078FAFEFD7000EA56FA3AFC3
:1022E00016D0FF0EA015956FFF0EA115966FFF0E6D
:1022F000A215976F7F0EA315986F955196119711A0
:102300009811D8A402D08DA102D0010EA56FA551BD
:10231000D8B41FD0010E8D27000E8E238F2390235B
:1023200090A117D08DC095F08EC096F08FC097F019
:1023300090C098F09835983397339633953395C07D
:102340008DF096C08EF097C08FF098C090F09E4BA5
:102350009F2B9FBF10D09F5103E19E29D8A00BD087
:10236000000E9F6F9E69000E8D6F000E8E6F000E27
:102370008F6F000E906F9FBF05D09F5111E19E059A
:10238000D8B00ED0000E9F6F000E9E6F000E8D6FA6
:10239000000E8E6F000E8F6F000E906F000E996F03
:1023A0009EC0A4F0A4A102D08F8F01D08F9FD8909F
:1023B000A431906F995190138DC08DF08EC08EF026
:1023C0008FC08FF090C090F012000001996F6D0ED9
:1023D00000019965ACD0000E376E0A0E366E000E05
:1023E000316E640E306E99C02EF02F6A69EC18F0D1
:1023F0002EC034F02FC035F0E6EC17F0D89034360C
:102400003536D89034363536240E3426000E352233
:10241000350E3424F66E060E3520F76E0900F5CF22
:1024200040F00900F5CF41F00900F5CF42F00A0075
:10243000F5CF43F0000E376E640E366E99C034F05F
:10244000356AE6EC17F0D89034363536D890343605
:102450003536480E3426000E3522350E3424F66EFD
:10246000060E3520F76E0900F5CF3CF00900F5CFD8
:102470003DF00900F5CF3EF00A00F5CF3FF042EC09
:102480000DF03CC095F03DC096F03EC097F03FC0C7
:1024900098F0000E316E0A0E306E99C02EF02F6A41
:1024A00069EC18F0D8902E362F36D8902E362F366D
:1024B000350E2E24F66E060E2F20F76E0900F5CF8E
:1024C00040F00900F5CF41F00900F5CF42F00A00D5
:1024D000F5CF43F095C03CF096C03DF097C03EF07C
:1024E00098C03FF042EC0DF03CC091F03DC092F03E
:1024F0003EC093F03FC094F091C03CF092C03DF0DC
:1025000093C03EF094C03FF0000E406E000E416E4E
:10251000000E426E3F0E436E42EC0DF03CC08DF05B
:102520003DC08EF03EC08FF03FC090F012000A0E0A
:10253000000199656BD0000E316E0A0E306E99C0A5
:102540002EF02F6A69EC18F0D8902E362F36D890DE
:102550002E362F36350E2E24F66E060E2F20F76EF1
:102560000900F5CF40F00900F5CF41F00900F5CFA3
:1025700042F00A00F5CF43F0000E376E0A0E366EB9
:1025800099C034F0356AE6EC17F0D8903436353619
:10259000D89034363536240E3426000E3522350ECA
:1025A0003424F66E060E3520F76E0900F5CF3CF0A8
:1025B0000900F5CF3DF00900F5CF3EF00A00F5CF58
:1025C0003FF042EC0DF03CC095F03DC096F03EC0AF
:1025D00097F03FC098F095C03CF096C03DF097C092
:1025E0003EF098C03FF0000E406E000E416E000EAF
:1025F000426E3F0E436E42EC0DF03CC08DF03DC08C
:102600008EF03EC08FF03FC090F012000001995153
:10261000040D350EF324F66E060EF420F76E090055
:10262000F5CF3CF00900F5CF3DF00900F5CF3EF0C5
:102630000A00F5CF3FF0000E406E000E416E000E16
:10264000426E3F0E436E42EC0DF03CC08DF03DC03B
:102650008EF03EC08FF03FC090F01200366E3650C4
:10266000D8A431AE1AD02EC032F02FC033F030C013
:1026700034F031C035F0321E331E341E351E322A7E
:10268000000E33223422352232C038F033C039F004
:1026900034C03AF035C03BF008D02EC038F02FC01F
:1026A00039F030C03AF031C03BF02E502F103010CE
:1026B0003110D8A409D0000E2E6E000E2F6E000E21
:1026C000306E000E316E1200960E376E06D0372A2D
:1026D000D8903B323A3239323832000E3814326EEA
:1026E000000E3914336E000E3A14346EFE0E3B1495
:1026F000356E3250331034103510D8B40DD0E7D7C2
:10270000372A010E3826000E39223A223B22D89071
:102710003B323A3239323832000E3814326E000E03
:102720003914336E000E3A14346EFF0E3B14356EBE
:102730003250331034103510D8B407D0E1D73706F3
:10274000D890383639363A363B363ABE03D0020E88
:102750003760F5D737B008D0FF0E3816FF0E3916A0
:102760007F0E3A16FF0E3B16D890373237C032F044
:10277000336A346A356A32C035F0346A336A326A91
:10278000325038123350391234503A1235503B120D
:102790003650D8A431AE01D03B8E38C02EF039C0AF
:1027A0002FF03AC030F03BC031F0120030C036F0AC
:1027B000376A386A2F34363601E3378036503E6E3A
:1027C0003E50D8A409D0000E2E6E000E2F6E000EC3
:1027D000306E000E316E120034C036F0376A386A3F
:1027E0003334363601E3378036503D6E3D50D8A441
:1027F00009D0000E2E6E000E2F6E000E306E000EF1
:10280000316E12002F8EFF0E2E16FF0E2F16000EA9
:102810003016338EFF0E3216FF0E3316000E3416AE
:10282000000E396E000E3A6E000E3B6E000E3C6ECE
:102830007F0E3E5E3D50980F3E5E180E3D6ED89066
:1028400039363A363B363C3632502E5C33502F58B0
:1028500034503058D8A007D032502E5E33502F5A03
:102860003450305A3980D8902E362F3630363D2E9F
:10287000E6D73EAE16D03E50800A970FD8B009D0AA
:10288000000E2E6E000E2F6E000E306E000E316E9A
:102890001200D8903C323B323A3239323E3EF9D7C0
:1028A00015D0170E3E640FD0000E2E6E000E2F6E48
:1028B000000E306E000E316E1200D89039363A3666
:1028C0003B363C363E063E50D8A4F7D739C02EF0F2
:1028D0003AC02FF03BC030F03CC031F01200303431
:1028E00031343B6E3B50D8A409D0000E2E6E000E42
:1028F0002F6E000E306E000E316E120034343534FF
:102900003A6E3A50D8A409D0000E2E6E000E2F6EEB
:10291000000E306E000E316E1200308EFF0E2E163D
:10292000FF0E2F16FF0E3016000E3116348EFF0EDE
:102930003216FF0E3316FF0E3416000E3516000E3B
:10294000366E000E376E000E386E000E396E7F0E3A
:102950003B5E3A50A00F3B5E200E3A6ED890363662
:1029600037363836393632502E5C33502F58345083
:10297000305835503158D8A009D032502E5E3350DF
:102980002F5A3450305A3550315A3680D8902E361E
:102990002F36303631363A2EE1D73BAE16D03B508B
:1029A000800A9F0FD8B009D0000E2E6E000E2F6E39
:1029B000000E306E000E316E1200D890393238326F
:1029C000373236323B3EF9D715D01F0E3B640FD05D
:1029D000000E2E6E000E2F6E000E306E000E316E49
:1029E0001200D89036363736383639363B063B50EB
:1029F000D8A4F7D736C02EF037C02FF038C030F04B
:102A000039C031F012000600FACF05F0FBCF06F016
:102A1000E9CF07F0EACF08F0E1CF09F0E2CF0AF002
:102A2000D9CF0BF0DACF0CF0F3CF0DF0F4CF0EF0DE
:102A3000F6CF0FF0F7CF10F0F8CF11F0F5CF12F07E
:102A400051C013F052C014F053C015F054C016F02A
:102A5000F2A246D0CECF17F0CFCF18F04E50D8A468
:102A60003ED04F50D8B41ED04AC001F04BC002F047
:102A70004CC003F04DC004F002C004F001C003F0EC
:102A8000026A016A175001240001E86F1850022001
:102A9000E96F000E0320EA6F000E0420EB6F000EBA
:102AA0004F6E1DD04AC001F04BC002F04CC003F085
:102AB0004DC004F002C004F001C003F0026A016AD4
:102AC000175001240001E46F18500220E56F000E3A
:102AD0000320E66F000E0420E76F010E4E6EF292A7
:102AE00016C054F015C053F014C052F013C051F08A
:102AF00012C0F5FF11C0F8FF10C0F7FF0FC0F6FFBE
:102B00000EC0F4FF0DC0F3FF0CC0DAFF0BC0D9FFFD
:102B10000AC0E2FF09C0E1FF08C0EAFF07C0E9FF01
:102B200006C0FBFF05C0FAFF51921100000E2E14E3
:102B3000366E000E2F14376E800E3014386E7F0EF6
:102B40003114396E3650371038103910D8A408D0E7
:102B5000000E2E6E000E2F6E000E306E000E316EC7
:102B6000000E3214366E000E3314376E800E34149D
:102B7000386E7F0E3514396E3650371038103910D4
:102B8000D8A408D0000E326E000E336E000E346EE4
:102B9000000E356E31AE1DD02EC036F02FC037F08E
:102BA00030C038F031C039F0361E371E381E391E9D
:102BB000362A000E372238223922000E36242E6E95
:102BC000000E37202F6E000E3820306E800E392018
:102BD000316E35AE1DD032C036F033C037F034C060
:102BE00038F035C039F0361E371E381E391E362AE9
:102BF000000E372238223922000E3624326E000EA3
:102C00003720336E000E3820346E800E3920356E3A
:102C1000000E2E1A000E2F1A000E301A800E311AD6
:102C2000000E321A000E331A000E341A800E351AB6
:102C300032502E5C33502F58345030583550315864
:102C4000D8B002D0D8901200D8801200000E000137
:102C5000B26F000EB36F000EB46F000EB56F000EB2
:102C6000B66F000EB76F000EB86F000EB96F4E5002
:102C7000D8B41200E8C0AAF0E9C0ABF0EAC0ACF0EA
:102C8000EBC0ADF0AA1FAB1FAC1FAD1FAA2B000EEF
:102C9000AB23AC23AD23E451AA25AE6FE551AB21A4
:102CA000AF6FE651AC21B06FE751AD21B16FAEC04F
:102CB0002EF0AFC02FF0B0C030F0B1C031F0000E38
:102CC0002EEC13F02EC0B6F02FC0B7F030C0B8F025
:102CD00031C0B9F0B6C03CF0B7C03DF0B8C03EF06E
:102CE000B9C03FF0BD0E406E370E416E860E426E8B
:102CF000340E436E42EC0DF03CC0B6F03DC0B7F070
:102D00003EC0B8F03FC0B9F0000E00018D6F000E5C
:102D10008E6F800E8F6F3F0E906FB6C091F0B7C070
:102D200092F0B8C093F0B9C094F08AEC10F08DC066
:102D3000B2F08EC0B3F08FC0B4F090C0B5F05BECD1
:102D40001AF0340E0001AA6FF10EE82EFED7AA2F5A
:102D5000FCD700D0B2C0A6F0B3C0A7F0B4C0A8F0B2
:102D6000B5C0A9F01200000198359935496E495057
:102D7000D8A409D0000E966F000E976F000E986FC2
:102D8000000E996F120096C09AF097C09BF098C001
:102D90009CF099C09DF0200E05D0D8909D339C33B7
:102DA0009B339A33E82EF9D79A51486E988FFF0ECD
:102DB0009617FF0E9717FF0E9817000E9917960E8D
:102DC000495E49AE16D04950800A970FD8B009D055
:102DD000000E966F000E976F000E986F000E996FA1
:102DE0001200D8909933983397339633493EF9D7E8
:102DF00015D01F0E49640FD0000E966F000E976F0E
:102E0000000E986F000E996F1200D8909637973782
:102E10009837993749064950D8A4F7D74850D8B4BD
:102E200008D0991F981F971F966D000E972398231F
:102E3000992396C096F097C097F098C098F099C0E3
:102E400099F01200000E406E000E416E7F0E426E31
:102E5000430E436ECEC0BEF0CFC0BFF0D0C0C0F0B6
:102E6000D1C0C1F0D2C02EF0D3C02FF0D4C030F00A
:102E7000D5C031F0F4EC19F02EC0BAF02FC0BBF081
:102E800030C0BCF031C0BDF0EBEC0EF0BAC03CF08D
:102E9000BBC03DF0BCC03EF0BDC03FF042EC0DF009
:102EA0003CC08DF03DC08EF03EC08FF03FC090F032
:102EB000D6C0BEF0D7C0BFF0D8C0C0F0D9C0C1F0F6
:102EC000D2C02EF0D3C02FF0D4C030F0D5C031F036
:102ED000F4EC19F02EC0BAF02FC0BBF030C0BCF03B
:102EE00031C0BDF0EBEC0EF0BAC091F0BBC092F077
:102EF000BCC093F0BDC094F08AEC10F08DC0CEF051
:102F00008EC0CFF08FC0D0F090C0D1F01200939E51
:102F1000939C939A9398959A959C959E8C9C300E31
:102F200043EC1AF04E0E316EEB0EE82EFED7312E2A
:102F3000FCD700F0300E43EC1AF0100E316E940EF8
:102F4000E82EFED7312EFCD700D0300E43EC1AF01D
:102F50004E0E316EEB0EE82EFED7312EFCD700F070
:102F6000200E43EC1AF0200E316E2A0EE82EFED70A
:102F7000312EFCD7280EFDEC18F0200E316E2A0EF3
:102F8000E82EFED7312EFCD70E0EFDEC18F0200EE9
:102F9000316E2A0EE82EFED7312EFCD7010EFDEC45
:102FA00018F0200E316E2A0EE82EFED7312EFCD7F7
:102FB000060EFDEC18F0200E316E2A0EE82EFED71C
:102FC000312EFCD7800EFDEC18F01200000E396E89
:102FD00037AE06D0366C371ED8B0372A010E396EA0
:102FE00035AE06D0346C351ED8B0352A010E391AEC
:102FF000000E3B6E000E3A6E36503710D8B41CD01F
:10300000010E386E04D0D89036363736382A37AEAF
:10301000FAD7D8903A363B363650345C375035586C
:10302000D8A005D03650345E3750355A3A80D89003
:1030300037323632382EEDD73950D8B404D03A6C06
:103040003B1ED8B03B2A3AC034F03BC035F01200EA
:10305000000E366E000E376E000E386E000E396EA2
:103060003250331034103510D8B42AD0010E3A6ED5
:1030700006D0D89032363336343635363A2A35AE25
:10308000F8D7D890363637363836393632502E5C47
:1030900033502F583450305835503158D8A009D0BB
:1030A00032502E5E33502F5A3450305A3550315AE8
:1030B0003680D89035323432333232323A2EE1D73C
:1030C00036C02EF037C02FF038C030F039C031F0A4
:1030D0001200000E336E2FAE06D02E6C2F1ED8B00D
:1030E0002F2A010E336E31AE04D0306C311ED8B0B1
:1030F000312A30503110D8B418D0010E326E04D0BD
:10310000D89030363136322A31AEFAD730502E5C74
:1031100031502F58D8A004D030502E5E31502F5A45
:10312000D89031323032322EF1D73350D8B404D067
:103130002E6C2F1ED8B02F2A2EC02EF02FC02FF0AD
:1031400012003250331034103510D8B424D0010E90
:10315000366E06D0D8903236333634363536362A87
:1031600035AEF8D732502E5C33502F58345030588B
:1031700035503158D8A008D032502E5E33502F5AD7
:103180003450305A3550315AD89035323432333287
:103190003232362EE7D72EC02EF02FC02FF030C09F
:1031A00030F031C031F0120014D032C0F6FF33C01D
:1031B000F7FFF86A050EF76403D00800F55005D054
:1031C000F6CFE9FFF7CFEAFFEF5088EC19F0324A6B
:1031D000332A32C0F6FF33C0F7FFF86A050EF764F2
:1031E00003D00800F55005D0F6CFE9FFF7CFEAFF8E
:1031F000EF500009D8B41200D8D7306E000E506ED0
:103200008C9A0F0E50163050F00B501250500BECA1
:103210001AF050EC1AF0150E2F6EC60EE82EFED7DF
:103220002F2EFCD700D00F0E501630C02FF00F0EEF
:103230002F162F38F00B501250500BEC1AF050ECA8
:103240001AF01200000E0001D21B000ED31B000E5C
:10325000D41B800ED51BCEC0BAF0CFC0BBF0D0C0FF
:10326000BCF0D1C0BDF0D2C0BEF0D3C0BFF0D4C05E
:10327000C0F0D5C0C1F0EBEC0EF0BAC0CEF0BBC0D0
:10328000CFF0BCC0D0F0BDC0D1F01200306E8C8A3F
:103290000F0E50163050F00B501250500BEC1AF02D
:1032A00050EC1AF0150E2F6EC60EE82EFED72F2EFC
:1032B000FCD700D00F0E501630C02FF00F0E2F1677
:1032C0002F38F00B501250500BEC1AF050EC1AF053
:1032D00012002E6E0FD08C948C9612008C948C86DB
:1032E00012008C848C9612008C848C8612008C8444
:1032F0008C9612002E50000AD8B4EDD7010AD8B42B
:10330000EDD7030AD8B4EDD7010AD8B4EDD7EFD77B
:10331000316E10D0010EFDEC18F01200030EFDEC22
:1033200018F01200100EFDEC18F01200315046ECAF
:1033300019F012003150080AD8B4F4D7020AD8B4F0
:10334000EDD7060AD8B4E6D7F1D72E6E0CD08C9004
:103350008C9212008C908C8212008C808C921200C5
:103360008C808C8212002E50000AD8B4F9D7010A42
:10337000D8B4F3D7030AD8B4EDD7010AD8A4120001
:10338000E6D7336E000E346E05D0C00E01D0800E2D
:10339000346E08D03150010AD8B4F9D7030AD8B432
:1033A000F4D7F5D734503324326E3204346E3450AF
:1033B000FDEC18F0120001EE30F0080EEE6AE8069F
:1033C000FDE100EEE4F0080EEE6AE806FDE100EE35
:1033D0004AF0070EEE6AE806FDE151905192000EA8
:1033E000F86E000120EF08F02E502F103010311031
:1033F000D8B408D0000E2E1A000E2F1A000E301A64
:10340000800E311A2EC02EF02FC02FF030C030F0B9
:1034100031C031F012002E6E2EA802D08A8801D061
:103420008A982EAA02D08A8A01D08A9A2EAC02D01B
:103430008A8C01D08A9C2EAE02D08A8E12008A9E7F
:1034400012002E503002F3CF32F0F4CF33F02E5072
:103450003102F35033262F503002F350332632C05E
:103460002EF033C02FF01200306E000E2F6E3A0E89
:10347000306005D02F0E306402D0010E2F6E2FC0A9
:103480002EF02E3012002F6E8C9A0F0E50162F50E9
:10349000F00B501250500BEC1AF050EC1AF01200D6
:1034A0008C8E100E2E6E940EE82EFED72E2EFCD78C
:1034B00000D08C9E1200010E4F6E000E4E6EF288F0
:0434C000F18C120079
:020000040020DA
:08000000FFFFFFFFFFFFFFFF00
:020000040030CA
:0E000000FF02181EFF8081FF0FC00FE00F40AF
:00000001FF
