:0400000046EF05F0D2
:100600000001000A006400E8031027406D6F6E745B
:0906100069656C003A25640000E4
:10061A00110E146E000E156E8CD0250E1A18D8B451
:10062A0009D00DC0D9FF0EC0DAFF1AC0DFFF0D4A8C
:10063A000E2A7FD0000E166E0FC0F6FF10C0F7FF0D
:10064A000F4A102A0800F5CF1AF01A50000AD8B437
:10065A007CD0640AD8B403D00D0AD8A46AD014C0D6
:10066A00D9FF15C0DAFFDECF18F0DDCF19F0020E80
:10067A001426000E152219AE06D0030E1612186C97
:10068A00191ED8B0192A010E1A6E050E1A18D8B4F6
:10069A0012D01A50020D010EF324F66E060EF42043
:1006AA00F76E0900F550185C0900F5501958D8A0E2
:1006BA0002D01A2AEAD716C013F0030E1316D8B4BA
:1006CA0008D00DC0D9FF0EC0DAFF2D0EDF6E0D4A1D
:1006DA000E2A1AC017F029D01750020D010EF32462
:1006EA00F66E060EF420F76E0900F5CF03F00A0045
:1006FA00F5CF04F018C001F019C002F054EC04F070
:10070A0001C008F002C009F0000E0B6E0A0E0A6E54
:10071A00EEEC04F00850300F1A6E0DC0D9FF0EC06F
:10072A00DAFF1AC0DFFF0D4A0E2A17061728D8A4C7
:10073A00D3D70FC0F6FF10C0F7FF0F4A102A0800E0
:10074A00F5CF1AF01A50D8A468D70DC0D9FF0EC039
:10075A00DAFF000EDF6E1200939E939C939A939891
:10076A00959A959C959E300E73EC05F0140E046EC6
:10077A007A0EE82EFED7042EFCD7300E73EC05F065
:10078A00C80E00D0E82EFDD7300E73EC05F0140E1B
:10079A00046E7A0EE82EFED7042EFCD7200E73ECD8
:1007AA0005F0070E046E7D0EE82EFED7042EFCD748
:1007BA0000F0280EA6EC04F0070E046E7D0EE82E5B
:1007CA00FED7042EFCD700F00E0EA6EC04F0070E9E
:1007DA00046E7D0EE82EFED7042EFCD700F0010E23
:1007EA00A6EC04F0070E046E7D0EE82EFED7042E4A
:1007FA00FCD700F0060EA6EC04F0070E046E7D0E80
:10080A00E82EFED7042EFCD700F0800EA6EC04F0EA
:10081A00120094948C9C8294B1EC03F0010EA6EC25
:10082A0004F0010E046E010E2CEC05F00B0E056EA1
:10083A00060E066E7DEC04F0020E046E090E2CEC18
:10084A0005F0010E046E010E94EC05F0610E0FEC3A
:10085A0005F0060E80EC05F00FEC05F01E0E0D6E8D
:10086A00000E0E6E140E0F6E060E106E26C011F0DC
:10087A0027C012F00DEC03F01E0E056E000E066E78
:10088A007DEC04F08274030E1C6E8A0E1B6E560EEB
:10089A00E82EFED71B2EFCD71C2EFAD7F3D7000E54
:1008AA00066E000E056E03500410D8B41CD0010E5B
:1008BA00076E04D0D89003360436072A04AEFAD756
:1008CA00D890053606360350015C04500258D8A069
:1008DA0005D00350015E0450025A0580D8900432B4
:1008EA000332072EEDD705C001F006C002F0120050
:1008FA0014D005C0F6FF06C0F7FFF86A050EF764C4
:10090A0003D00800F55005D0F6CFE9FFF7CFEAFF8C
:10091A00EF500FEC05F0054A062A05C0F6FF06C09F
:10092A00F7FFF86A050EF76403D00800F55005D002
:10093A00F6CFE9FFF7CFEAFFEF500009D8B412006B
:10094A00D8D7036E000E1D6E8C9A0F0E1D1603501B
:10095A00F00B1D121D505DEC05F08AEC05F0040E3B
:10096A00026EE40EE82EFED7022EFCD700D00F0E40
:10097A001D1603C002F00F0E02160238F00B1D12EC
:10098A001D505DEC05F08AEC05F01200036E8C8AAE
:10099A000F0E1D160350F00B1D121D505DEC05F0D5
:1009AA008AEC05F0040E026EE40EE82EFED7022E43
:1009BA00FCD700D00F0E1D1603C002F00F0E021650
:1009CA000238F00B1D121D505DEC05F08AEC05F0A3
:1009DA0012000A500B10D8B418D0010E0C6E04D0B5
:1009EA00D8900A360B360C2A0BAEFAD70A50085C96
:1009FA000B500958D8A004D00A50085E0B50095A67
:100A0A00D8900B320A320C2EF1D708C008F009C070
:100A1A0009F01200046E10D0010EA6EC04F01200C8
:100A2A00020EA6EC04F01200100EA6EC04F012005E
:100A3A000450CBEC04F012000450080AD8B4F4D7DE
:100A4A00020AD8B4EDD7060AD8B4E6D7F1D7066EAB
:100A5A00000E076E05D0C00E01D0800E076E08D0BA
:100A6A000450010AD8B4F9D7030AD8B4F4D7F5D791
:100A7A0007500624056E0504076E0750A6EC04F01D
:100A8A001200380EF66E0B0EF76E000EF86E0900A5
:100A9A00F5CF26F00900F5CF27F000EE1DF0090E7C
:100AAA00EE6AE806FDE1000EF86E00010EEF04F0B2
:100ABA00016E01A802D08A8801D08A9801AA02D0C0
:100ACA008A8A01D08A9A01AC02D08A8C01D08A9C87
:100ADA0001AE02D08A8E12008A9E1200026E8C9A91
:100AEA000F0E1D160250F00B1D121D505DEC05F085
:100AFA008AEC05F01200016E090E016402D0370E6D
:100B0A0001D0300E0126015012008C8E030E016EA8
:100B1A00980EE82EFED7012EFCD78C9E1200056E89
:100B2A000550052404100C09A6EC04F01200FB037E
:020000040020DA
:08000000FFFFFFFFFFFFFFFF00
:020000040030CA
:0E000000FF01181EFF8081FF0FC00FE00F40B0
:00000001FF
