:04000000B5EF3EF02A
:107C3A008384C80E00D0E82EFDD783941200456EC7
:107C4A0083900F0E83164550F00B83121DEC3EF005
:107C5A00120009D047C0D9FF48C0DAFFDF5068ECEC
:107C6A003EF0474A482A47C0D9FF48C0DAFFDF50EA
:107C7A00D8B41200EFD753C045F054C046F054ECC4
:107C8A003FF0534A542A0A0E53185410D8A404D069
:107C9A00000E546E000E536E780E1200466E8390DC
:107CAA000F0E83164650F00B83121DEC3EF00F0E9A
:107CBA00831646C045F00F0E45164538F00B831261
:107CCA001DEC3EF01200466E83800F0E831646505E
:107CDA00F00B83121DEC3EF00F0E831646C045F0E2
:107CEA000F0E45164538F00B83121DEC3EF01200BC
:107CFA00300E24EC3EF0200E24EC3EF0280E53EC1D
:107D0A003EF00E0E53EC3EF0010E53EC3EF0060E22
:107D1A0053EC3EF0800E53EC3EF01200C000D0004F
:107D2A001F00B00039002C001100DF004F534341FF
:107D3A0052204544554152444F004C554E41204D26
:107D4A00454E444F5A41004E4F524D4120495341EE
:107D5A0042454C004A55414E204341524C4F530034
:107D6A001A0EF66E7E0EF76E000EF86E00EE60F0DA
:107D7A0010EE8EF00900F5CFEEFFE550E150FAE182
:107D8A00260EF66E7D0EF76E000EF86E00EE01F00E
:107D9A0010EE44F00900F5CFEEFFE550E150FAE1AC
:107DAA00566A556A546A536A0001A2EF3FF0010EFF
:107DBA0053EC3EF0D8905534D96E5634DA6E090E2B
:107DCA00D926000EDA22DECF47F0DDCF48F02EECBE
:107DDA003EF0C00E53EC3EF0D8905534D96E56346E
:107DEA00DA6E010ED926000EDA22DECF47F0DDCF99
:107DFA0048F02EEC3EF0554A562A040E55185610F5
:107E0A00D8A404D0000E566E000E556E780E1200DD
:107E1A000101010101010000000101000000000050
:107E2A00010100010100010001010101000001003E
:107E3A00000101000001010001000101000101002F
:107E4A00010001010101010001010100000000001F
:107E5A00010101010101010001010100000101000C
:107E6A004C412050524F4752414D4143494F4E00D9
:107E7A00524F4452494755455A20504552455A0097
:107E8A004845524E414E44455A204449415A0049B8
:107E9A004E54524F44554343494F4E204100000E21
:107EAA004F6E000E4E6E4FBE06D04F5045E1080E83
:107EBA004E5CD8B0120045C047F046C048F0D89092
:107ECA0047364836D89047364836D89047364836E7
:107EDA00600E496E000E4A6E4750492648504A22A3
:107EEA004E504924D96E4F504A20DA6EDF504B6EFD
:107EFA004B504C6E4D6A4C044D10D8A40DD04EC058
:107F0A0047F0010E486E472A02D0D8904836472ECD
:107F1A00FCD748508A120DD04EC047F0010E486E69
:107F2A00472A02D0D8904836472EFCD74850FF0A35
:107F3A008A164E4A4F2AB7D71200780E526E000E92
:107F4A00546E000E536E000E956E000E936E948C56
:107F5A00948E949094927DEC3EF0020E516E040E33
:107F6A00506EBA0EE82EFED7502EFCD7512EFAD7F5
:107F7A0000D0010E53EC3EF00FC047F010C048F09D
:107F8A002EEC3EF0C00E53EC3EF007C047F008C09E
:107F9A0048F02EEC3EF0000E466E000E456E54EC94
:107FAA003FF023D01A0E506EF80EE82EFED7502E50
:107FBA00FCD700D082AC05D082808292DCEC3EF005
:107FCA0006D082AE05D08290828240EC3EF0526E9C
:107FDA0082708272030E516E8A0E506E560EE82E11
:107FEA00FED7502EFCD7512EFAD7780E5218D8A4A5
:067FFA0000EF00F0D7D7F4
:020000040020DA
:08000000FFFFFFFFFFFFFFFF00
:020000040030CA
:0E0000000100181EFF8081FF0FC00FE00F40AF
:00000001FF
