:0400000061EF04F0B8
:100600000050756572746F2053657269616C0020CB
:0B0610002020202000686F6C610000BB
:10061C00939E939C939A9398959A959C959E8C9C5B
:10062C00300E54EC04F04E0E046EEB0EE82EFED79A
:10063C00042EFCD700F0300E54EC04F0100E046EB7
:10064C00940EE82EFED7042EFCD700D0300E54ECBE
:10065C0004F04E0E046EEB0EE82EFED7042EFCD7E3
:10066C0000F0200E54EC04F0200E046E2A0EE82E3E
:10067C00FED7042EFCD7280EAAEC03F0200E046E35
:10068C002A0EE82EFED7042EFCD70E0EAAEC03F091
:10069C00200E046E2A0EE82EFED7042EFCD7010E77
:1006AC00AAEC03F0200E046E2A0EE82EFED7042EC0
:1006BC00FCD7060EAAEC03F0200E046E2A0EE82ED0
:1006CC00FED7042EFCD7800EAAEC03F012009498EF
:1006DC006CEC04F00EEC03F0010E056E060E066ECB
:1006EC003FEC04F0020E046E010E0FEC04F0150E3C
:1006FC00056E060E066E3FEC04F08B988B789EAA66
:10070C00FED7AECF0AF08B78020E046E010E0FEC02
:10071C0004F00F0E056E060E066E3FEC04F0020E92
:10072C00046E010E0FEC04F00A50F2EC03F01F0EF5
:10073C00096E710E086E1E0EE82EFED7082EFCD721
:10074C00092EFAD700D0DAD7036E000E136E8C9AEE
:10075C000F0E13160350F00B1312135029EC04F068
:10076C0077EC04F0150E026EC60EE82EFED7022EA4
:10077C00FCD700D00F0E131603C002F00F0E02169A
:10078C000238F00B1312135029EC04F077EC04F040
:10079C001200036E8C8A0F0E13160350F00B1312FB
:1007AC00135029EC04F077EC04F0150E026EC60E13
:1007BC00E82EFED7022EFCD700D00F0E131603C066
:1007CC0002F00F0E02160238F00B1312135029EC24
:1007DC0004F077EC04F01200046E10D0010EAAECB9
:1007EC0003F01200030EAAEC03F01200100EAAEC98
:1007FC0003F012000450CFEC03F012000450080A6E
:10080C00D8B4F4D7020AD8B4EDD7060AD8B4E6D7D0
:10081C00F1D7066E000E076E05D0C00E01D0800E0B
:10082C00076E08D00450010AD8B4F9D7030AD8B41B
:10083C00F4D7F5D707500624056E0504076E07504C
:10084C00AAEC03F01200016E01A802D08A8801D034
:10085C008A9801AA02D08A8A01D08A9A01AC02D065
:10086C008A8C01D08A9C01AE02D08A8E12008A9E9C
:10087C0012000AD005C0F6FF06C0F7FF0800F550BD
:10088C00F2EC03F0054A062A05C0F6FF06C0F7FF96
:10089C000800F5500009D8B41200ECD7026E8C9AFF
:1008AC000F0E13160250F00B1312135029EC04F018
:1008BC0077EC04F0120000EE0BF0090EEE6AE8067D
:1008CC00FDE1000EF86E00016DEF03F0B896AC98E8
:1008DC00AC84670EAF6EAC8AAB8EAB88948E948C66
:1008EC0012008C8E100E016E940EE82EFED7012E87
:0808FC00FCD700D08C9E120015
:020000040020DA
:08000000FFFFFFFFFFFFFFFF00
:020000040030CA
:0E000000FF02181EFF8081FF0FC00FE00F40AF
:00000001FF
